{"contracts/ReliefShipment.sol":{"ReliefShipment":{"abi":[{"anonymous":false,"inputs":[{"indexed":false,"internalType":"bytes32","name":"shipmentId","type":"bytes32"},{"indexed":false,"internalType":"string","name":"message","type":"string"}],"name":"DiscrepancyDetected","type":"event"},{"anonymous":false,"inputs":[{"indexed":false,"internalType":"bytes32","name":"shipmentId","type":"bytes32"},{"indexed":false,"internalType":"uint256","name":"totalDistributed","type":"uint256"}],"name":"DistributionUpdated","type":"event"},{"anonymous":false,"inputs":[{"indexed":false,"internalType":"bytes32","name":"shipmentId","type":"bytes32"},{"indexed":false,"internalType":"uint256","name":"totalReceived","type":"uint256"}],"name":"ShipmentReceived","type":"event"},{"anonymous":false,"inputs":[{"indexed":false,"internalType":"bytes32","name":"shipmentId","type":"bytes32"},{"indexed":false,"internalType":"uint256","name":"totalSent","type":"uint256"}],"name":"ShipmentRecorded","type":"event"},{"inputs":[{"internalType":"string","name":"_shipmentId","type":"string"}],"name":"getShipment","outputs":[{"components":[{"internalType":"bytes32","name":"shipmentId","type":"bytes32"},{"internalType":"uint256","name":"totalSent","type":"uint256"},{"internalType":"uint256","name":"totalReceived","type":"uint256"},{"internalType":"uint256","name":"totalDistributed","type":"uint256"},{"internalType":"bool","name":"isCompleted","type":"bool"},{"internalType":"uint256","name":"timestamp","type":"uint256"}],"internalType":"struct ReliefShipment.Shipment","name":"","type":"tuple"}],"stateMutability":"view","type":"function"},{"inputs":[{"internalType":"string","name":"_shipmentId","type":"string"}],"name":"getShipmentKey","outputs":[{"internalType":"bytes32","name":"","type":"bytes32"}],"stateMutability":"pure","type":"function"},{"inputs":[{"internalType":"string","name":"_shipmentId","type":"string"},{"internalType":"uint256","name":"_totalDistributed","type":"uint256"}],"name":"recordDistribution","outputs":[],"stateMutability":"nonpayable","type":"function"},{"inputs":[{"internalType":"string","name":"_shipmentId","type":"string"},{"internalType":"uint256","name":"_totalReceived","type":"uint256"}],"name":"recordReceived","outputs":[],"stateMutability":"nonpayable","type":"function"},{"inputs":[{"internalType":"string","name":"_shipmentId","type":"string"},{"internalType":"uint256","name":"_totalSent","type":"uint256"}],"name":"recordShipment","outputs":[],"stateMutability":"nonpayable","type":"function"},{"inputs":[],"name":"shipmentCount","outputs":[{"internalType":"uint256","name":"","type":"uint256"}],"stateMutability":"view","type":"function"},{"inputs":[{"internalType":"bytes32","name":"","type":"bytes32"}],"name":"shipments","outputs":[{"internalType":"bytes32","name":"shipmentId","type":"bytes32"},{"internalType":"uint256","name":"totalSent","type":"uint256"},{"internalType":"uint256","name":"totalReceived","type":"uint256"},{"internalType":"uint256","name":"totalDistributed","type":"uint256"},{"internalType":"bool","name":"isCompleted","type":"bool"},{"internalType":"uint256","name":"timestamp","type":"uint256"}],"stateMutability":"view","type":"function"}],"evm":{"bytecode":{"linkReferences":{},"object":"6080604052348015600f57600080fd5b50610e268061001f6000396000f3fe608060405234801561001057600080fd5b506004361061007d5760003560e01c8063d87b40411161005b578063d87b4041146100ec578063d8d2bd3614610121578063da34f3d51461013d578063f58b39391461016d5761007d565b80630fb7d7d314610082578063aace20b71461009e578063b934860c146100bc575b600080fd5b61009c600480360381019061009791906108ca565b610189565b005b6100a6610336565b6040516100b39190610935565b60405180910390f35b6100d660048036038101906100d19190610950565b61033c565b6040516100e391906109b2565b60405180910390f35b610106600480360381019061010191906109f9565b61036c565b60405161011896959493929190610a41565b60405180910390f35b61013b600480360381019061013691906108ca565b6103b5565b005b61015760048036038101906101529190610950565b610527565b6040516101649190610b4a565b60405180910390f35b610187600480360381019061018291906108ca565b610624565b005b60008260405160200161019c9190610bd6565b6040516020818303038152906040528051906020012090506000806000838152602001908152602001600020600001540361020c576040517f08c379a000000000000000000000000000000000000000000000000000000000815260040161020390610c4a565b60405180910390fd5b8160008083815260200190815260200160002060030181905550600080828152602001908152602001600020600201546000808381526020019081526020016000206001015414801561028857506000808281526020019081526020016000206003015460008083815260200190815260200160002060020154145b156102c057600160008083815260200190815260200160002060040160006101000a81548160ff0219169083151502179055506102f8565b7f2b1248a87322396cbe1f405d6c43bb7dba91afd7b55e61079ebc9b46d6c557ab816040516102ef9190610cb6565b60405180910390a15b7f50015543695dda9b9f58b58fa458b1eaae38ac4c4d8f83cf23bff1a9506098398183604051610329929190610ce4565b60405180910390a1505050565b60015481565b60008160405160200161034f9190610bd6565b604051602081830303815290604052805190602001209050919050565b60006020528060005260406000206000915090508060000154908060010154908060020154908060030154908060040160009054906101000a900460ff16908060050154905086565b6000826040516020016103c89190610bd6565b60405160208183030381529060405280519060200120905060008060008381526020019081526020016000206000015414610438576040517f08c379a000000000000000000000000000000000000000000000000000000000815260040161042f90610d59565b60405180910390fd5b6040518060c001604052808281526020018381526020016000815260200160008152602001600015158152602001428152506000808381526020019081526020016000206000820151816000015560208201518160010155604082015181600201556060820151816003015560808201518160040160006101000a81548160ff02191690831515021790555060a08201518160050155905050600160008154809291906104e490610da8565b91905055507f177d9d05160271292838d588cd0fc808c1c3ca7be36f03729fb51e5f624f17dd818360405161051a929190610ce4565b60405180910390a1505050565b61052f6106ff565b6000826040516020016105429190610bd6565b604051602081830303815290604052805190602001209050600080600083815260200190815260200160002060000154036105b2576040517f08c379a00000000000000000000000000000000000000000000000000000000081526004016105a990610c4a565b60405180910390fd5b6000808281526020019081526020016000206040518060c0016040529081600082015481526020016001820154815260200160028201548152602001600382015481526020016004820160009054906101000a900460ff16151515158152602001600582015481525050915050919050565b6000826040516020016106379190610bd6565b604051602081830303815290604052805190602001209050600080600083815260200190815260200160002060000154036106a7576040517f08c379a000000000000000000000000000000000000000000000000000000000815260040161069e90610c4a565b60405180910390fd5b81600080838152602001908152602001600020600201819055507ff03ba798ccdec2f00b7f634dd07ae3e7f46f21c8aacacc50d812a344c7ab0bc581836040516106f2929190610ce4565b60405180910390a1505050565b6040518060c0016040528060008019168152602001600081526020016000815260200160008152602001600015158152602001600081525090565b6000604051905090565b600080fd5b600080fd5b600080fd5b600080fd5b6000601f19601f8301169050919050565b7f4e487b7100000000000000000000000000000000000000000000000000000000600052604160045260246000fd5b6107a182610758565b810181811067ffffffffffffffff821117156107c0576107bf610769565b5b80604052505050565b60006107d361073a565b90506107df8282610798565b919050565b600067ffffffffffffffff8211156107ff576107fe610769565b5b61080882610758565b9050602081019050919050565b82818337600083830152505050565b6000610837610832846107e4565b6107c9565b90508281526020810184848401111561085357610852610753565b5b61085e848285610815565b509392505050565b600082601f83011261087b5761087a61074e565b5b813561088b848260208601610824565b91505092915050565b6000819050919050565b6108a781610894565b81146108b257600080fd5b50565b6000813590506108c48161089e565b92915050565b600080604083850312156108e1576108e0610744565b5b600083013567ffffffffffffffff8111156108ff576108fe610749565b5b61090b85828601610866565b925050602061091c858286016108b5565b9150509250929050565b61092f81610894565b82525050565b600060208201905061094a6000830184610926565b92915050565b60006020828403121561096657610965610744565b5b600082013567ffffffffffffffff81111561098457610983610749565b5b61099084828501610866565b91505092915050565b6000819050919050565b6109ac81610999565b82525050565b60006020820190506109c760008301846109a3565b92915050565b6109d681610999565b81146109e157600080fd5b50565b6000813590506109f3816109cd565b92915050565b600060208284031215610a0f57610a0e610744565b5b6000610a1d848285016109e4565b91505092915050565b60008115159050919050565b610a3b81610a26565b82525050565b600060c082019050610a5660008301896109a3565b610a636020830188610926565b610a706040830187610926565b610a7d6060830186610926565b610a8a6080830185610a32565b610a9760a0830184610926565b979650505050505050565b610aab81610999565b82525050565b610aba81610894565b82525050565b610ac981610a26565b82525050565b60c082016000820151610ae56000850182610aa2565b506020820151610af86020850182610ab1565b506040820151610b0b6040850182610ab1565b506060820151610b1e6060850182610ab1565b506080820151610b316080850182610ac0565b5060a0820151610b4460a0850182610ab1565b50505050565b600060c082019050610b5f6000830184610acf565b92915050565b600081519050919050565b600081905092915050565b60005b83811015610b99578082015181840152602081019050610b7e565b60008484015250505050565b6000610bb082610b65565b610bba8185610b70565b9350610bca818560208601610b7b565b80840191505092915050565b6000610be28284610ba5565b915081905092915050565b600082825260208201905092915050565b7f536869706d656e74206e6f7420666f756e640000000000000000000000000000600082015250565b6000610c34601283610bed565b9150610c3f82610bfe565b602082019050919050565b60006020820190508181036000830152610c6381610c27565b9050919050565b7f4d69736d6174636820696e20736869706d656e74206461746100000000000000600082015250565b6000610ca0601983610bed565b9150610cab82610c6a565b602082019050919050565b6000604082019050610ccb60008301846109a3565b8181036020830152610cdc81610c93565b905092915050565b6000604082019050610cf960008301856109a3565b610d066020830184610926565b9392505050565b7f536869706d656e7420616c726561647920657869737473000000000000000000600082015250565b6000610d43601783610bed565b9150610d4e82610d0d565b602082019050919050565b60006020820190508181036000830152610d7281610d36565b9050919050565b7f4e487b7100000000000000000000000000000000000000000000000000000000600052601160045260246000fd5b6000610db382610894565b91507fffffffffffffffffffffffffffffffffffffffffffffffffffffffffffffffff8203610de557610de4610d79565b5b60018201905091905056fea264697066735822122085c70e3f4ddf2152f661e705b8c162d4fea8c3c681855e53ba826d7c4d31dd9964736f6c634300081c0033","opcodes":"PUSH1 0x80 PUSH1 0x40 MSTORE CALLVALUE DUP1 ISZERO PUSH1 0xF JUMPI PUSH1 0x0 DUP1 REVERT JUMPDEST POP PUSH2 0xE26 DUP1 PUSH2 0x1F PUSH1 0x0 CODECOPY PUSH1 0x0 RETURN INVALID PUSH1 0x80 PUSH1 0x40 MSTORE CALLVALUE DUP1 ISZERO PUSH2 0x10 JUMPI PUSH1 0x0 DUP1 REVERT JUMPDEST POP PUSH1 0x4 CALLDATASIZE LT PUSH2 0x7D JUMPI PUSH1 0x0 CALLDATALOAD PUSH1 0xE0 SHR DUP1 PUSH4 0xD87B4041 GT PUSH2 0x5B JUMPI DUP1 PUSH4 0xD87B4041 EQ PUSH2 0xEC JUMPI DUP1 PUSH4 0xD8D2BD36 EQ PUSH2 0x121 JUMPI DUP1 PUSH4 0xDA34F3D5 EQ PUSH2 0x13D JUMPI DUP1 PUSH4 0xF58B3939 EQ PUSH2 0x16D JUMPI PUSH2 0x7D JUMP JUMPDEST DUP1 PUSH4 0xFB7D7D3 EQ PUSH2 0x82 JUMPI DUP1 PUSH4 0xAACE20B7 EQ PUSH2 0x9E JUMPI DUP1 PUSH4 0xB934860C EQ PUSH2 0xBC JUMPI JUMPDEST PUSH1 0x0 DUP1 REVERT JUMPDEST PUSH2 0x9C PUSH1 0x4 DUP1 CALLDATASIZE SUB DUP2 ADD SWAP1 PUSH2 0x97 SWAP2 SWAP1 PUSH2 0x8CA JUMP JUMPDEST PUSH2 0x189 JUMP JUMPDEST STOP JUMPDEST PUSH2 0xA6 PUSH2 0x336 JUMP JUMPDEST PUSH1 0x40 MLOAD PUSH2 0xB3 SWAP2 SWAP1 PUSH2 0x935 JUMP JUMPDEST PUSH1 0x40 MLOAD DUP1 SWAP2 SUB SWAP1 RETURN JUMPDEST PUSH2 0xD6 PUSH1 0x4 DUP1 CALLDATASIZE SUB DUP2 ADD SWAP1 PUSH2 0xD1 SWAP2 SWAP1 PUSH2 0x950 JUMP JUMPDEST PUSH2 0x33C JUMP JUMPDEST PUSH1 0x40 MLOAD PUSH2 0xE3 SWAP2 SWAP1 PUSH2 0x9B2 JUMP JUMPDEST PUSH1 0x40 MLOAD DUP1 SWAP2 SUB SWAP1 RETURN JUMPDEST PUSH2 0x106 PUSH1 0x4 DUP1 CALLDATASIZE SUB DUP2 ADD SWAP1 PUSH2 0x101 SWAP2 SWAP1 PUSH2 0x9F9 JUMP JUMPDEST PUSH2 0x36C JUMP JUMPDEST PUSH1 0x40 MLOAD PUSH2 0x118 SWAP7 SWAP6 SWAP5 SWAP4 SWAP3 SWAP2 SWAP1 PUSH2 0xA41 JUMP JUMPDEST PUSH1 0x40 MLOAD DUP1 SWAP2 SUB SWAP1 RETURN JUMPDEST PUSH2 0x13B PUSH1 0x4 DUP1 CALLDATASIZE SUB DUP2 ADD SWAP1 PUSH2 0x136 SWAP2 SWAP1 PUSH2 0x8CA JUMP JUMPDEST PUSH2 0x3B5 JUMP JUMPDEST STOP JUMPDEST PUSH2 0x157 PUSH1 0x4 DUP1 CALLDATASIZE SUB DUP2 ADD SWAP1 PUSH2 0x152 SWAP2 SWAP1 PUSH2 0x950 JUMP JUMPDEST PUSH2 0x527 JUMP JUMPDEST PUSH1 0x40 MLOAD PUSH2 0x164 SWAP2 SWAP1 PUSH2 0xB4A JUMP JUMPDEST PUSH1 0x40 MLOAD DUP1 SWAP2 SUB SWAP1 RETURN JUMPDEST PUSH2 0x187 PUSH1 0x4 DUP1 CALLDATASIZE SUB DUP2 ADD SWAP1 PUSH2 0x182 SWAP2 SWAP1 PUSH2 0x8CA JUMP JUMPDEST PUSH2 0x624 JUMP JUMPDEST STOP JUMPDEST PUSH1 0x0 DUP3 PUSH1 0x40 MLOAD PUSH1 0x20 ADD PUSH2 0x19C SWAP2 SWAP1 PUSH2 0xBD6 JUMP JUMPDEST PUSH1 0x40 MLOAD PUSH1 0x20 DUP2 DUP4 SUB SUB DUP2 MSTORE SWAP1 PUSH1 0x40 MSTORE DUP1 MLOAD SWAP1 PUSH1 0x20 ADD KECCAK256 SWAP1 POP PUSH1 0x0 DUP1 PUSH1 0x0 DUP4 DUP2 MSTORE PUSH1 0x20 ADD SWAP1 DUP2 MSTORE PUSH1 0x20 ADD PUSH1 0x0 KECCAK256 PUSH1 0x0 ADD SLOAD SUB PUSH2 0x20C JUMPI PUSH1 0x40 MLOAD PUSH32 0x8C379A000000000000000000000000000000000000000000000000000000000 DUP2 MSTORE PUSH1 0x4 ADD PUSH2 0x203 SWAP1 PUSH2 0xC4A JUMP JUMPDEST PUSH1 0x40 MLOAD DUP1 SWAP2 SUB SWAP1 REVERT JUMPDEST DUP2 PUSH1 0x0 DUP1 DUP4 DUP2 MSTORE PUSH1 0x20 ADD SWAP1 DUP2 MSTORE PUSH1 0x20 ADD PUSH1 0x0 KECCAK256 PUSH1 0x3 ADD DUP2 SWAP1 SSTORE POP PUSH1 0x0 DUP1 DUP3 DUP2 MSTORE PUSH1 0x20 ADD SWAP1 DUP2 MSTORE PUSH1 0x20 ADD PUSH1 0x0 KECCAK256 PUSH1 0x2 ADD SLOAD PUSH1 0x0 DUP1 DUP4 DUP2 MSTORE PUSH1 0x20 ADD SWAP1 DUP2 MSTORE PUSH1 0x20 ADD PUSH1 0x0 KECCAK256 PUSH1 0x1 ADD SLOAD EQ DUP1 ISZERO PUSH2 0x288 JUMPI POP PUSH1 0x0 DUP1 DUP3 DUP2 MSTORE PUSH1 0x20 ADD SWAP1 DUP2 MSTORE PUSH1 0x20 ADD PUSH1 0x0 KECCAK256 PUSH1 0x3 ADD SLOAD PUSH1 0x0 DUP1 DUP4 DUP2 MSTORE PUSH1 0x20 ADD SWAP1 DUP2 MSTORE PUSH1 0x20 ADD PUSH1 0x0 KECCAK256 PUSH1 0x2 ADD SLOAD EQ JUMPDEST ISZERO PUSH2 0x2C0 JUMPI PUSH1 0x1 PUSH1 0x0 DUP1 DUP4 DUP2 MSTORE PUSH1 0x20 ADD SWAP1 DUP2 MSTORE PUSH1 0x20 ADD PUSH1 0x0 KECCAK256 PUSH1 0x4 ADD PUSH1 0x0 PUSH2 0x100 EXP DUP2 SLOAD DUP2 PUSH1 0xFF MUL NOT AND SWAP1 DUP4 ISZERO ISZERO MUL OR SWAP1 SSTORE POP PUSH2 0x2F8 JUMP JUMPDEST PUSH32 0x2B1248A87322396CBE1F405D6C43BB7DBA91AFD7B55E61079EBC9B46D6C557AB DUP2 PUSH1 0x40 MLOAD PUSH2 0x2EF SWAP2 SWAP1 PUSH2 0xCB6 JUMP JUMPDEST PUSH1 0x40 MLOAD DUP1 SWAP2 SUB SWAP1 LOG1 JUMPDEST PUSH32 0x50015543695DDA9B9F58B58FA458B1EAAE38AC4C4D8F83CF23BFF1A950609839 DUP2 DUP4 PUSH1 0x40 MLOAD PUSH2 0x329 SWAP3 SWAP2 SWAP1 PUSH2 0xCE4 JUMP JUMPDEST PUSH1 0x40 MLOAD DUP1 SWAP2 SUB SWAP1 LOG1 POP POP POP JUMP JUMPDEST PUSH1 0x1 SLOAD DUP2 JUMP JUMPDEST PUSH1 0x0 DUP2 PUSH1 0x40 MLOAD PUSH1 0x20 ADD PUSH2 0x34F SWAP2 SWAP1 PUSH2 0xBD6 JUMP JUMPDEST PUSH1 0x40 MLOAD PUSH1 0x20 DUP2 DUP4 SUB SUB DUP2 MSTORE SWAP1 PUSH1 0x40 MSTORE DUP1 MLOAD SWAP1 PUSH1 0x20 ADD KECCAK256 SWAP1 POP SWAP2 SWAP1 POP JUMP JUMPDEST PUSH1 0x0 PUSH1 0x20 MSTORE DUP1 PUSH1 0x0 MSTORE PUSH1 0x40 PUSH1 0x0 KECCAK256 PUSH1 0x0 SWAP2 POP SWAP1 POP DUP1 PUSH1 0x0 ADD SLOAD SWAP1 DUP1 PUSH1 0x1 ADD SLOAD SWAP1 DUP1 PUSH1 0x2 ADD SLOAD SWAP1 DUP1 PUSH1 0x3 ADD SLOAD SWAP1 DUP1 PUSH1 0x4 ADD PUSH1 0x0 SWAP1 SLOAD SWAP1 PUSH2 0x100 EXP SWAP1 DIV PUSH1 0xFF AND SWAP1 DUP1 PUSH1 0x5 ADD SLOAD SWAP1 POP DUP7 JUMP JUMPDEST PUSH1 0x0 DUP3 PUSH1 0x40 MLOAD PUSH1 0x20 ADD PUSH2 0x3C8 SWAP2 SWAP1 PUSH2 0xBD6 JUMP JUMPDEST PUSH1 0x40 MLOAD PUSH1 0x20 DUP2 DUP4 SUB SUB DUP2 MSTORE SWAP1 PUSH1 0x40 MSTORE DUP1 MLOAD SWAP1 PUSH1 0x20 ADD KECCAK256 SWAP1 POP PUSH1 0x0 DUP1 PUSH1 0x0 DUP4 DUP2 MSTORE PUSH1 0x20 ADD SWAP1 DUP2 MSTORE PUSH1 0x20 ADD PUSH1 0x0 KECCAK256 PUSH1 0x0 ADD SLOAD EQ PUSH2 0x438 JUMPI PUSH1 0x40 MLOAD PUSH32 0x8C379A000000000000000000000000000000000000000000000000000000000 DUP2 MSTORE PUSH1 0x4 ADD PUSH2 0x42F SWAP1 PUSH2 0xD59 JUMP JUMPDEST PUSH1 0x40 MLOAD DUP1 SWAP2 SUB SWAP1 REVERT JUMPDEST PUSH1 0x40 MLOAD DUP1 PUSH1 0xC0 ADD PUSH1 0x40 MSTORE DUP1 DUP3 DUP2 MSTORE PUSH1 0x20 ADD DUP4 DUP2 MSTORE PUSH1 0x20 ADD PUSH1 0x0 DUP2 MSTORE PUSH1 0x20 ADD PUSH1 0x0 DUP2 MSTORE PUSH1 0x20 ADD PUSH1 0x0 ISZERO ISZERO DUP2 MSTORE PUSH1 0x20 ADD TIMESTAMP DUP2 MSTORE POP PUSH1 0x0 DUP1 DUP4 DUP2 MSTORE PUSH1 0x20 ADD SWAP1 DUP2 MSTORE PUSH1 0x20 ADD PUSH1 0x0 KECCAK256 PUSH1 0x0 DUP3 ADD MLOAD DUP2 PUSH1 0x0 ADD SSTORE PUSH1 0x20 DUP3 ADD MLOAD DUP2 PUSH1 0x1 ADD SSTORE PUSH1 0x40 DUP3 ADD MLOAD DUP2 PUSH1 0x2 ADD SSTORE PUSH1 0x60 DUP3 ADD MLOAD DUP2 PUSH1 0x3 ADD SSTORE PUSH1 0x80 DUP3 ADD MLOAD DUP2 PUSH1 0x4 ADD PUSH1 0x0 PUSH2 0x100 EXP DUP2 SLOAD DUP2 PUSH1 0xFF MUL NOT AND SWAP1 DUP4 ISZERO ISZERO MUL OR SWAP1 SSTORE POP PUSH1 0xA0 DUP3 ADD MLOAD DUP2 PUSH1 0x5 ADD SSTORE SWAP1 POP POP PUSH1 0x1 PUSH1 0x0 DUP2 SLOAD DUP1 SWAP3 SWAP2 SWAP1 PUSH2 0x4E4 SWAP1 PUSH2 0xDA8 JUMP JUMPDEST SWAP2 SWAP1 POP SSTORE POP PUSH32 0x177D9D05160271292838D588CD0FC808C1C3CA7BE36F03729FB51E5F624F17DD DUP2 DUP4 PUSH1 0x40 MLOAD PUSH2 0x51A SWAP3 SWAP2 SWAP1 PUSH2 0xCE4 JUMP JUMPDEST PUSH1 0x40 MLOAD DUP1 SWAP2 SUB SWAP1 LOG1 POP POP POP JUMP JUMPDEST PUSH2 0x52F PUSH2 0x6FF JUMP JUMPDEST PUSH1 0x0 DUP3 PUSH1 0x40 MLOAD PUSH1 0x20 ADD PUSH2 0x542 SWAP2 SWAP1 PUSH2 0xBD6 JUMP JUMPDEST PUSH1 0x40 MLOAD PUSH1 0x20 DUP2 DUP4 SUB SUB DUP2 MSTORE SWAP1 PUSH1 0x40 MSTORE DUP1 MLOAD SWAP1 PUSH1 0x20 ADD KECCAK256 SWAP1 POP PUSH1 0x0 DUP1 PUSH1 0x0 DUP4 DUP2 MSTORE PUSH1 0x20 ADD SWAP1 DUP2 MSTORE PUSH1 0x20 ADD PUSH1 0x0 KECCAK256 PUSH1 0x0 ADD SLOAD SUB PUSH2 0x5B2 JUMPI PUSH1 0x40 MLOAD PUSH32 0x8C379A000000000000000000000000000000000000000000000000000000000 DUP2 MSTORE PUSH1 0x4 ADD PUSH2 0x5A9 SWAP1 PUSH2 0xC4A JUMP JUMPDEST PUSH1 0x40 MLOAD DUP1 SWAP2 SUB SWAP1 REVERT JUMPDEST PUSH1 0x0 DUP1 DUP3 DUP2 MSTORE PUSH1 0x20 ADD SWAP1 DUP2 MSTORE PUSH1 0x20 ADD PUSH1 0x0 KECCAK256 PUSH1 0x40 MLOAD DUP1 PUSH1 0xC0 ADD PUSH1 0x40 MSTORE SWAP1 DUP2 PUSH1 0x0 DUP3 ADD SLOAD DUP2 MSTORE PUSH1 0x20 ADD PUSH1 0x1 DUP3 ADD SLOAD DUP2 MSTORE PUSH1 0x20 ADD PUSH1 0x2 DUP3 ADD SLOAD DUP2 MSTORE PUSH1 0x20 ADD PUSH1 0x3 DUP3 ADD SLOAD DUP2 MSTORE PUSH1 0x20 ADD PUSH1 0x4 DUP3 ADD PUSH1 0x0 SWAP1 SLOAD SWAP1 PUSH2 0x100 EXP SWAP1 DIV PUSH1 0xFF AND ISZERO ISZERO ISZERO ISZERO DUP2 MSTORE PUSH1 0x20 ADD PUSH1 0x5 DUP3 ADD SLOAD DUP2 MSTORE POP POP SWAP2 POP POP SWAP2 SWAP1 POP JUMP JUMPDEST PUSH1 0x0 DUP3 PUSH1 0x40 MLOAD PUSH1 0x20 ADD PUSH2 0x637 SWAP2 SWAP1 PUSH2 0xBD6 JUMP JUMPDEST PUSH1 0x40 MLOAD PUSH1 0x20 DUP2 DUP4 SUB SUB DUP2 MSTORE SWAP1 PUSH1 0x40 MSTORE DUP1 MLOAD SWAP1 PUSH1 0x20 ADD KECCAK256 SWAP1 POP PUSH1 0x0 DUP1 PUSH1 0x0 DUP4 DUP2 MSTORE PUSH1 0x20 ADD SWAP1 DUP2 MSTORE PUSH1 0x20 ADD PUSH1 0x0 KECCAK256 PUSH1 0x0 ADD SLOAD SUB PUSH2 0x6A7 JUMPI PUSH1 0x40 MLOAD PUSH32 0x8C379A000000000000000000000000000000000000000000000000000000000 DUP2 MSTORE PUSH1 0x4 ADD PUSH2 0x69E SWAP1 PUSH2 0xC4A JUMP JUMPDEST PUSH1 0x40 MLOAD DUP1 SWAP2 SUB SWAP1 REVERT JUMPDEST DUP2 PUSH1 0x0 DUP1 DUP4 DUP2 MSTORE PUSH1 0x20 ADD SWAP1 DUP2 MSTORE PUSH1 0x20 ADD PUSH1 0x0 KECCAK256 PUSH1 0x2 ADD DUP2 SWAP1 SSTORE POP PUSH32 0xF03BA798CCDEC2F00B7F634DD07AE3E7F46F21C8AACACC50D812A344C7AB0BC5 DUP2 DUP4 PUSH1 0x40 MLOAD PUSH2 0x6F2 SWAP3 SWAP2 SWAP1 PUSH2 0xCE4 JUMP JUMPDEST PUSH1 0x40 MLOAD DUP1 SWAP2 SUB SWAP1 LOG1 POP POP POP JUMP JUMPDEST PUSH1 0x40 MLOAD DUP1 PUSH1 0xC0 ADD PUSH1 0x40 MSTORE DUP1 PUSH1 0x0 DUP1 NOT AND DUP2 MSTORE PUSH1 0x20 ADD PUSH1 0x0 DUP2 MSTORE PUSH1 0x20 ADD PUSH1 0x0 DUP2 MSTORE PUSH1 0x20 ADD PUSH1 0x0 DUP2 MSTORE PUSH1 0x20 ADD PUSH1 0x0 ISZERO ISZERO DUP2 MSTORE PUSH1 0x20 ADD PUSH1 0x0 DUP2 MSTORE POP SWAP1 JUMP JUMPDEST PUSH1 0x0 PUSH1 0x40 MLOAD SWAP1 POP SWAP1 JUMP JUMPDEST PUSH1 0x0 DUP1 REVERT JUMPDEST PUSH1 0x0 DUP1 REVERT JUMPDEST PUSH1 0x0 DUP1 REVERT JUMPDEST PUSH1 0x0 DUP1 REVERT JUMPDEST PUSH1 0x0 PUSH1 0x1F NOT PUSH1 0x1F DUP4 ADD AND SWAP1 POP SWAP2 SWAP1 POP JUMP JUMPDEST PUSH32 0x4E487B7100000000000000000000000000000000000000000000000000000000 PUSH1 0x0 MSTORE PUSH1 0x41 PUSH1 0x4 MSTORE PUSH1 0x24 PUSH1 0x0 REVERT JUMPDEST PUSH2 0x7A1 DUP3 PUSH2 0x758 JUMP JUMPDEST DUP2 ADD DUP2 DUP2 LT PUSH8 0xFFFFFFFFFFFFFFFF DUP3 GT OR ISZERO PUSH2 0x7C0 JUMPI PUSH2 0x7BF PUSH2 0x769 JUMP JUMPDEST JUMPDEST DUP1 PUSH1 0x40 MSTORE POP POP POP JUMP JUMPDEST PUSH1 0x0 PUSH2 0x7D3 PUSH2 0x73A JUMP JUMPDEST SWAP1 POP PUSH2 0x7DF DUP3 DUP3 PUSH2 0x798 JUMP JUMPDEST SWAP2 SWAP1 POP JUMP JUMPDEST PUSH1 0x0 PUSH8 0xFFFFFFFFFFFFFFFF DUP3 GT ISZERO PUSH2 0x7FF JUMPI PUSH2 0x7FE PUSH2 0x769 JUMP JUMPDEST JUMPDEST PUSH2 0x808 DUP3 PUSH2 0x758 JUMP JUMPDEST SWAP1 POP PUSH1 0x20 DUP2 ADD SWAP1 POP SWAP2 SWAP1 POP JUMP JUMPDEST DUP3 DUP2 DUP4 CALLDATACOPY PUSH1 0x0 DUP4 DUP4 ADD MSTORE POP POP POP JUMP JUMPDEST PUSH1 0x0 PUSH2 0x837 PUSH2 0x832 DUP5 PUSH2 0x7E4 JUMP JUMPDEST PUSH2 0x7C9 JUMP JUMPDEST SWAP1 POP DUP3 DUP2 MSTORE PUSH1 0x20 DUP2 ADD DUP5 DUP5 DUP5 ADD GT ISZERO PUSH2 0x853 JUMPI PUSH2 0x852 PUSH2 0x753 JUMP JUMPDEST JUMPDEST PUSH2 0x85E DUP5 DUP3 DUP6 PUSH2 0x815 JUMP JUMPDEST POP SWAP4 SWAP3 POP POP POP JUMP JUMPDEST PUSH1 0x0 DUP3 PUSH1 0x1F DUP4 ADD SLT PUSH2 0x87B JUMPI PUSH2 0x87A PUSH2 0x74E JUMP JUMPDEST JUMPDEST DUP2 CALLDATALOAD PUSH2 0x88B DUP5 DUP3 PUSH1 0x20 DUP7 ADD PUSH2 0x824 JUMP JUMPDEST SWAP2 POP POP SWAP3 SWAP2 POP POP JUMP JUMPDEST PUSH1 0x0 DUP2 SWAP1 POP SWAP2 SWAP1 POP JUMP JUMPDEST PUSH2 0x8A7 DUP2 PUSH2 0x894 JUMP JUMPDEST DUP2 EQ PUSH2 0x8B2 JUMPI PUSH1 0x0 DUP1 REVERT JUMPDEST POP JUMP JUMPDEST PUSH1 0x0 DUP2 CALLDATALOAD SWAP1 POP PUSH2 0x8C4 DUP2 PUSH2 0x89E JUMP JUMPDEST SWAP3 SWAP2 POP POP JUMP JUMPDEST PUSH1 0x0 DUP1 PUSH1 0x40 DUP4 DUP6 SUB SLT ISZERO PUSH2 0x8E1 JUMPI PUSH2 0x8E0 PUSH2 0x744 JUMP JUMPDEST JUMPDEST PUSH1 0x0 DUP4 ADD CALLDATALOAD PUSH8 0xFFFFFFFFFFFFFFFF DUP2 GT ISZERO PUSH2 0x8FF JUMPI PUSH2 0x8FE PUSH2 0x749 JUMP JUMPDEST JUMPDEST PUSH2 0x90B DUP6 DUP3 DUP7 ADD PUSH2 0x866 JUMP JUMPDEST SWAP3 POP POP PUSH1 0x20 PUSH2 0x91C DUP6 DUP3 DUP7 ADD PUSH2 0x8B5 JUMP JUMPDEST SWAP2 POP POP SWAP3 POP SWAP3 SWAP1 POP JUMP JUMPDEST PUSH2 0x92F DUP2 PUSH2 0x894 JUMP JUMPDEST DUP3 MSTORE POP POP JUMP JUMPDEST PUSH1 0x0 PUSH1 0x20 DUP3 ADD SWAP1 POP PUSH2 0x94A PUSH1 0x0 DUP4 ADD DUP5 PUSH2 0x926 JUMP JUMPDEST SWAP3 SWAP2 POP POP JUMP JUMPDEST PUSH1 0x0 PUSH1 0x20 DUP3 DUP5 SUB SLT ISZERO PUSH2 0x966 JUMPI PUSH2 0x965 PUSH2 0x744 JUMP JUMPDEST JUMPDEST PUSH1 0x0 DUP3 ADD CALLDATALOAD PUSH8 0xFFFFFFFFFFFFFFFF DUP2 GT ISZERO PUSH2 0x984 JUMPI PUSH2 0x983 PUSH2 0x749 JUMP JUMPDEST JUMPDEST PUSH2 0x990 DUP5 DUP3 DUP6 ADD PUSH2 0x866 JUMP JUMPDEST SWAP2 POP POP SWAP3 SWAP2 POP POP JUMP JUMPDEST PUSH1 0x0 DUP2 SWAP1 POP SWAP2 SWAP1 POP JUMP JUMPDEST PUSH2 0x9AC DUP2 PUSH2 0x999 JUMP JUMPDEST DUP3 MSTORE POP POP JUMP JUMPDEST PUSH1 0x0 PUSH1 0x20 DUP3 ADD SWAP1 POP PUSH2 0x9C7 PUSH1 0x0 DUP4 ADD DUP5 PUSH2 0x9A3 JUMP JUMPDEST SWAP3 SWAP2 POP POP JUMP JUMPDEST PUSH2 0x9D6 DUP2 PUSH2 0x999 JUMP JUMPDEST DUP2 EQ PUSH2 0x9E1 JUMPI PUSH1 0x0 DUP1 REVERT JUMPDEST POP JUMP JUMPDEST PUSH1 0x0 DUP2 CALLDATALOAD SWAP1 POP PUSH2 0x9F3 DUP2 PUSH2 0x9CD JUMP JUMPDEST SWAP3 SWAP2 POP POP JUMP JUMPDEST PUSH1 0x0 PUSH1 0x20 DUP3 DUP5 SUB SLT ISZERO PUSH2 0xA0F JUMPI PUSH2 0xA0E PUSH2 0x744 JUMP JUMPDEST JUMPDEST PUSH1 0x0 PUSH2 0xA1D DUP5 DUP3 DUP6 ADD PUSH2 0x9E4 JUMP JUMPDEST SWAP2 POP POP SWAP3 SWAP2 POP POP JUMP JUMPDEST PUSH1 0x0 DUP2 ISZERO ISZERO SWAP1 POP SWAP2 SWAP1 POP JUMP JUMPDEST PUSH2 0xA3B DUP2 PUSH2 0xA26 JUMP JUMPDEST DUP3 MSTORE POP POP JUMP JUMPDEST PUSH1 0x0 PUSH1 0xC0 DUP3 ADD SWAP1 POP PUSH2 0xA56 PUSH1 0x0 DUP4 ADD DUP10 PUSH2 0x9A3 JUMP JUMPDEST PUSH2 0xA63 PUSH1 0x20 DUP4 ADD DUP9 PUSH2 0x926 JUMP JUMPDEST PUSH2 0xA70 PUSH1 0x40 DUP4 ADD DUP8 PUSH2 0x926 JUMP JUMPDEST PUSH2 0xA7D PUSH1 0x60 DUP4 ADD DUP7 PUSH2 0x926 JUMP JUMPDEST PUSH2 0xA8A PUSH1 0x80 DUP4 ADD DUP6 PUSH2 0xA32 JUMP JUMPDEST PUSH2 0xA97 PUSH1 0xA0 DUP4 ADD DUP5 PUSH2 0x926 JUMP JUMPDEST SWAP8 SWAP7 POP POP POP POP POP POP POP JUMP JUMPDEST PUSH2 0xAAB DUP2 PUSH2 0x999 JUMP JUMPDEST DUP3 MSTORE POP POP JUMP JUMPDEST PUSH2 0xABA DUP2 PUSH2 0x894 JUMP JUMPDEST DUP3 MSTORE POP POP JUMP JUMPDEST PUSH2 0xAC9 DUP2 PUSH2 0xA26 JUMP JUMPDEST DUP3 MSTORE POP POP JUMP JUMPDEST PUSH1 0xC0 DUP3 ADD PUSH1 0x0 DUP3 ADD MLOAD PUSH2 0xAE5 PUSH1 0x0 DUP6 ADD DUP3 PUSH2 0xAA2 JUMP JUMPDEST POP PUSH1 0x20 DUP3 ADD MLOAD PUSH2 0xAF8 PUSH1 0x20 DUP6 ADD DUP3 PUSH2 0xAB1 JUMP JUMPDEST POP PUSH1 0x40 DUP3 ADD MLOAD PUSH2 0xB0B PUSH1 0x40 DUP6 ADD DUP3 PUSH2 0xAB1 JUMP JUMPDEST POP PUSH1 0x60 DUP3 ADD MLOAD PUSH2 0xB1E PUSH1 0x60 DUP6 ADD DUP3 PUSH2 0xAB1 JUMP JUMPDEST POP PUSH1 0x80 DUP3 ADD MLOAD PUSH2 0xB31 PUSH1 0x80 DUP6 ADD DUP3 PUSH2 0xAC0 JUMP JUMPDEST POP PUSH1 0xA0 DUP3 ADD MLOAD PUSH2 0xB44 PUSH1 0xA0 DUP6 ADD DUP3 PUSH2 0xAB1 JUMP JUMPDEST POP POP POP POP JUMP JUMPDEST PUSH1 0x0 PUSH1 0xC0 DUP3 ADD SWAP1 POP PUSH2 0xB5F PUSH1 0x0 DUP4 ADD DUP5 PUSH2 0xACF JUMP JUMPDEST SWAP3 SWAP2 POP POP JUMP JUMPDEST PUSH1 0x0 DUP2 MLOAD SWAP1 POP SWAP2 SWAP1 POP JUMP JUMPDEST PUSH1 0x0 DUP2 SWAP1 POP SWAP3 SWAP2 POP POP JUMP JUMPDEST PUSH1 0x0 JUMPDEST DUP4 DUP2 LT ISZERO PUSH2 0xB99 JUMPI DUP1 DUP3 ADD MLOAD DUP2 DUP5 ADD MSTORE PUSH1 0x20 DUP2 ADD SWAP1 POP PUSH2 0xB7E JUMP JUMPDEST PUSH1 0x0 DUP5 DUP5 ADD MSTORE POP POP POP POP JUMP JUMPDEST PUSH1 0x0 PUSH2 0xBB0 DUP3 PUSH2 0xB65 JUMP JUMPDEST PUSH2 0xBBA DUP2 DUP6 PUSH2 0xB70 JUMP JUMPDEST SWAP4 POP PUSH2 0xBCA DUP2 DUP6 PUSH1 0x20 DUP7 ADD PUSH2 0xB7B JUMP JUMPDEST DUP1 DUP5 ADD SWAP2 POP POP SWAP3 SWAP2 POP POP JUMP JUMPDEST PUSH1 0x0 PUSH2 0xBE2 DUP3 DUP5 PUSH2 0xBA5 JUMP JUMPDEST SWAP2 POP DUP2 SWAP1 POP SWAP3 SWAP2 POP POP JUMP JUMPDEST PUSH1 0x0 DUP3 DUP3 MSTORE PUSH1 0x20 DUP3 ADD SWAP1 POP SWAP3 SWAP2 POP POP JUMP JUMPDEST PUSH32 0x536869706D656E74206E6F7420666F756E640000000000000000000000000000 PUSH1 0x0 DUP3 ADD MSTORE POP JUMP JUMPDEST PUSH1 0x0 PUSH2 0xC34 PUSH1 0x12 DUP4 PUSH2 0xBED JUMP JUMPDEST SWAP2 POP PUSH2 0xC3F DUP3 PUSH2 0xBFE JUMP JUMPDEST PUSH1 0x20 DUP3 ADD SWAP1 POP SWAP2 SWAP1 POP JUMP JUMPDEST PUSH1 0x0 PUSH1 0x20 DUP3 ADD SWAP1 POP DUP2 DUP2 SUB PUSH1 0x0 DUP4 ADD MSTORE PUSH2 0xC63 DUP2 PUSH2 0xC27 JUMP JUMPDEST SWAP1 POP SWAP2 SWAP1 POP JUMP JUMPDEST PUSH32 0x4D69736D6174636820696E20736869706D656E74206461746100000000000000 PUSH1 0x0 DUP3 ADD MSTORE POP JUMP JUMPDEST PUSH1 0x0 PUSH2 0xCA0 PUSH1 0x19 DUP4 PUSH2 0xBED JUMP JUMPDEST SWAP2 POP PUSH2 0xCAB DUP3 PUSH2 0xC6A JUMP JUMPDEST PUSH1 0x20 DUP3 ADD SWAP1 POP SWAP2 SWAP1 POP JUMP JUMPDEST PUSH1 0x0 PUSH1 0x40 DUP3 ADD SWAP1 POP PUSH2 0xCCB PUSH1 0x0 DUP4 ADD DUP5 PUSH2 0x9A3 JUMP JUMPDEST DUP2 DUP2 SUB PUSH1 0x20 DUP4 ADD MSTORE PUSH2 0xCDC DUP2 PUSH2 0xC93 JUMP JUMPDEST SWAP1 POP SWAP3 SWAP2 POP POP JUMP JUMPDEST PUSH1 0x0 PUSH1 0x40 DUP3 ADD SWAP1 POP PUSH2 0xCF9 PUSH1 0x0 DUP4 ADD DUP6 PUSH2 0x9A3 JUMP JUMPDEST PUSH2 0xD06 PUSH1 0x20 DUP4 ADD DUP5 PUSH2 0x926 JUMP JUMPDEST SWAP4 SWAP3 POP POP POP JUMP JUMPDEST PUSH32 0x536869706D656E7420616C726561647920657869737473000000000000000000 PUSH1 0x0 DUP3 ADD MSTORE POP JUMP JUMPDEST PUSH1 0x0 PUSH2 0xD43 PUSH1 0x17 DUP4 PUSH2 0xBED JUMP JUMPDEST SWAP2 POP PUSH2 0xD4E DUP3 PUSH2 0xD0D JUMP JUMPDEST PUSH1 0x20 DUP3 ADD SWAP1 POP SWAP2 SWAP1 POP JUMP JUMPDEST PUSH1 0x0 PUSH1 0x20 DUP3 ADD SWAP1 POP DUP2 DUP2 SUB PUSH1 0x0 DUP4 ADD MSTORE PUSH2 0xD72 DUP2 PUSH2 0xD36 JUMP JUMPDEST SWAP1 POP SWAP2 SWAP1 POP JUMP JUMPDEST PUSH32 0x4E487B7100000000000000000000000000000000000000000000000000000000 PUSH1 0x0 MSTORE PUSH1 0x11 PUSH1 0x4 MSTORE PUSH1 0x24 PUSH1 0x0 REVERT JUMPDEST PUSH1 0x0 PUSH2 0xDB3 DUP3 PUSH2 0x894 JUMP JUMPDEST SWAP2 POP PUSH32 0xFFFFFFFFFFFFFFFFFFFFFFFFFFFFFFFFFFFFFFFFFFFFFFFFFFFFFFFFFFFFFFFF DUP3 SUB PUSH2 0xDE5 JUMPI PUSH2 0xDE4 PUSH2 0xD79 JUMP JUMPDEST JUMPDEST PUSH1 0x1 DUP3 ADD SWAP1 POP SWAP2 SWAP1 POP JUMP INVALID LOG2 PUSH5 0x6970667358 0x22 SLT KECCAK256 DUP6 0xC7 0xE EXTCODEHASH 0x4D 0xDF 0x21 MSTORE 0xF6 PUSH2 0xE705 0xB8 0xC1 PUSH3 0xD4FEA8 0xC3 0xC6 DUP2 DUP6 MCOPY MSTORE8 0xBA DUP3 PUSH14 0x7C4D31DD9964736F6C634300081C STOP CALLER "},"methodIdentifiers":{"getShipment(string)":"da34f3d5","getShipmentKey(string)":"b934860c","recordDistribution(string,uint256)":"0fb7d7d3","recordReceived(string,uint256)":"f58b3939","recordShipment(string,uint256)":"d8d2bd36","shipmentCount()":"aace20b7","shipments(bytes32)":"d87b4041"}}}}}