{"contracts/ReliefShipment.sol":{"ReliefShipment":{"abi":[{"inputs":[],"stateMutability":"nonpayable","type":"constructor"},{"anonymous":false,"inputs":[{"indexed":false,"internalType":"bytes32","name":"shipmentId","type":"bytes32"},{"indexed":false,"internalType":"string","name":"message","type":"string"}],"name":"DiscrepancyDetected","type":"event"},{"anonymous":false,"inputs":[{"indexed":false,"internalType":"bytes32","name":"shipmentId","type":"bytes32"},{"indexed":false,"internalType":"uint256","name":"totalDistributed","type":"uint256"}],"name":"DistributionUpdated","type":"event"},{"anonymous":false,"inputs":[{"indexed":false,"internalType":"bytes32","name":"shipmentId","type":"bytes32"},{"indexed":false,"internalType":"uint256","name":"totalReceived","type":"uint256"}],"name":"ShipmentReceived","type":"event"},{"anonymous":false,"inputs":[{"indexed":false,"internalType":"bytes32","name":"shipmentId","type":"bytes32"},{"indexed":false,"internalType":"uint256","name":"totalSent","type":"uint256"}],"name":"ShipmentRecorded","type":"event"},{"inputs":[],"name":"admin","outputs":[{"internalType":"address","name":"","type":"address"}],"stateMutability":"view","type":"function"},{"inputs":[{"internalType":"string","name":"_shipmentId","type":"string"}],"name":"getShipment","outputs":[{"components":[{"internalType":"bytes32","name":"shipmentId","type":"bytes32"},{"internalType":"uint256","name":"totalSent","type":"uint256"},{"internalType":"uint256","name":"totalReceived","type":"uint256"},{"internalType":"uint256","name":"totalDistributed","type":"uint256"},{"internalType":"bool","name":"isCompleted","type":"bool"}],"internalType":"struct ReliefShipment.Shipment","name":"","type":"tuple"}],"stateMutability":"view","type":"function"},{"inputs":[{"internalType":"string","name":"_shipmentId","type":"string"}],"name":"getShipmentKey","outputs":[{"internalType":"bytes32","name":"","type":"bytes32"}],"stateMutability":"pure","type":"function"},{"inputs":[{"internalType":"string","name":"_shipmentId","type":"string"},{"internalType":"uint256","name":"_totalDistributed","type":"uint256"}],"name":"recordDistribution","outputs":[],"stateMutability":"nonpayable","type":"function"},{"inputs":[{"internalType":"string","name":"_shipmentId","type":"string"},{"internalType":"uint256","name":"_totalReceived","type":"uint256"}],"name":"recordReceived","outputs":[],"stateMutability":"nonpayable","type":"function"},{"inputs":[{"internalType":"string","name":"_shipmentId","type":"string"},{"internalType":"uint256","name":"_totalSent","type":"uint256"}],"name":"recordShipment","outputs":[],"stateMutability":"nonpayable","type":"function"},{"inputs":[],"name":"shipmentCount","outputs":[{"internalType":"uint256","name":"","type":"uint256"}],"stateMutability":"view","type":"function"},{"inputs":[{"internalType":"bytes32","name":"","type":"bytes32"}],"name":"shipments","outputs":[{"internalType":"bytes32","name":"shipmentId","type":"bytes32"},{"internalType":"uint256","name":"totalSent","type":"uint256"},{"internalType":"uint256","name":"totalReceived","type":"uint256"},{"internalType":"uint256","name":"totalDistributed","type":"uint256"},{"internalType":"bool","name":"isCompleted","type":"bool"}],"stateMutability":"view","type":"function"}],"evm":{"bytecode":{"linkReferences":{},"object":"6080604052348015600f57600080fd5b5033600260006101000a81548173ffffffffffffffffffffffffffffffffffffffff021916908373ffffffffffffffffffffffffffffffffffffffff1602179055506110a4806100606000396000f3fe608060405234801561001057600080fd5b50600436106100885760003560e01c8063d8d2bd361161005b578063d8d2bd361461012b578063da34f3d514610147578063f58b393914610177578063f851a4401461019357610088565b80630fb7d7d31461008d578063aace20b7146100a9578063b934860c146100c7578063d87b4041146100f7575b600080fd5b6100a760048036038101906100a29190610aa1565b6101b1565b005b6100b16103ee565b6040516100be9190610b0c565b60405180910390f35b6100e160048036038101906100dc9190610b27565b6103f4565b6040516100ee9190610b89565b60405180910390f35b610111600480360381019061010c9190610bd0565b610424565b604051610122959493929190610c18565b60405180910390f35b61014560048036038101906101409190610aa1565b610467565b005b610161600480360381019061015c9190610b27565b610659565b60405161016e9190610d00565b60405180910390f35b610191600480360381019061018c9190610aa1565b61074c565b005b61019b6108b7565b6040516101a89190610d5c565b60405180910390f35b600260009054906101000a900473ffffffffffffffffffffffffffffffffffffffff1673ffffffffffffffffffffffffffffffffffffffff163373ffffffffffffffffffffffffffffffffffffffff1614610241576040517f08c379a000000000000000000000000000000000000000000000000000000000815260040161023890610dd4565b60405180910390fd5b6000826040516020016102549190610e65565b604051602081830303815290604052805190602001209050600080600083815260200190815260200160002060000154036102c4576040517f08c379a00000000000000000000000000000000000000000000000000000000081526004016102bb90610ec8565b60405180910390fd5b8160008083815260200190815260200160002060030181905550600080828152602001908152602001600020600201546000808381526020019081526020016000206001015414801561034057506000808281526020019081526020016000206003015460008083815260200190815260200160002060020154145b1561037857600160008083815260200190815260200160002060040160006101000a81548160ff0219169083151502179055506103b0565b7f2b1248a87322396cbe1f405d6c43bb7dba91afd7b55e61079ebc9b46d6c557ab816040516103a79190610f34565b60405180910390a15b7f50015543695dda9b9f58b58fa458b1eaae38ac4c4d8f83cf23bff1a95060983981836040516103e1929190610f62565b60405180910390a1505050565b60015481565b6000816040516020016104079190610e65565b604051602081830303815290604052805190602001209050919050565b60006020528060005260406000206000915090508060000154908060010154908060020154908060030154908060040160009054906101000a900460ff16905085565b600260009054906101000a900473ffffffffffffffffffffffffffffffffffffffff1673ffffffffffffffffffffffffffffffffffffffff163373ffffffffffffffffffffffffffffffffffffffff16146104f7576040517f08c379a00000000000000000000000000000000000000000000000000000000081526004016104ee90610dd4565b60405180910390fd5b60008260405160200161050a9190610e65565b6040516020818303038152906040528051906020012090506000806000838152602001908152602001600020600001541461057a576040517f08c379a000000000000000000000000000000000000000000000000000000000815260040161057190610fd7565b60405180910390fd5b6040518060a001604052808281526020018381526020016000815260200160008152602001600015158152506000808381526020019081526020016000206000820151816000015560208201518160010155604082015181600201556060820151816003015560808201518160040160006101000a81548160ff0219169083151502179055509050506001600081548092919061061690611026565b91905055507f177d9d05160271292838d588cd0fc808c1c3ca7be36f03729fb51e5f624f17dd818360405161064c929190610f62565b60405180910390a1505050565b6106616108dd565b6000826040516020016106749190610e65565b604051602081830303815290604052805190602001209050600080600083815260200190815260200160002060000154036106e4576040517f08c379a00000000000000000000000000000000000000000000000000000000081526004016106db90610ec8565b60405180910390fd5b6000808281526020019081526020016000206040518060a0016040529081600082015481526020016001820154815260200160028201548152602001600382015481526020016004820160009054906101000a900460ff161515151581525050915050919050565b600260009054906101000a900473ffffffffffffffffffffffffffffffffffffffff1673ffffffffffffffffffffffffffffffffffffffff163373ffffffffffffffffffffffffffffffffffffffff16146107dc576040517f08c379a00000000000000000000000000000000000000000000000000000000081526004016107d390610dd4565b60405180910390fd5b6000826040516020016107ef9190610e65565b6040516020818303038152906040528051906020012090506000806000838152602001908152602001600020600001540361085f576040517f08c379a000000000000000000000000000000000000000000000000000000000815260040161085690610ec8565b60405180910390fd5b81600080838152602001908152602001600020600201819055507ff03ba798ccdec2f00b7f634dd07ae3e7f46f21c8aacacc50d812a344c7ab0bc581836040516108aa929190610f62565b60405180910390a1505050565b600260009054906101000a900473ffffffffffffffffffffffffffffffffffffffff1681565b6040518060a00160405280600080191681526020016000815260200160008152602001600081526020016000151581525090565b6000604051905090565b600080fd5b600080fd5b600080fd5b600080fd5b6000601f19601f8301169050919050565b7f4e487b7100000000000000000000000000000000000000000000000000000000600052604160045260246000fd5b6109788261092f565b810181811067ffffffffffffffff8211171561099757610996610940565b5b80604052505050565b60006109aa610911565b90506109b6828261096f565b919050565b600067ffffffffffffffff8211156109d6576109d5610940565b5b6109df8261092f565b9050602081019050919050565b82818337600083830152505050565b6000610a0e610a09846109bb565b6109a0565b905082815260208101848484011115610a2a57610a2961092a565b5b610a358482856109ec565b509392505050565b600082601f830112610a5257610a51610925565b5b8135610a628482602086016109fb565b91505092915050565b6000819050919050565b610a7e81610a6b565b8114610a8957600080fd5b50565b600081359050610a9b81610a75565b92915050565b60008060408385031215610ab857610ab761091b565b5b600083013567ffffffffffffffff811115610ad657610ad5610920565b5b610ae285828601610a3d565b9250506020610af385828601610a8c565b9150509250929050565b610b0681610a6b565b82525050565b6000602082019050610b216000830184610afd565b92915050565b600060208284031215610b3d57610b3c61091b565b5b600082013567ffffffffffffffff811115610b5b57610b5a610920565b5b610b6784828501610a3d565b91505092915050565b6000819050919050565b610b8381610b70565b82525050565b6000602082019050610b9e6000830184610b7a565b92915050565b610bad81610b70565b8114610bb857600080fd5b50565b600081359050610bca81610ba4565b92915050565b600060208284031215610be657610be561091b565b5b6000610bf484828501610bbb565b91505092915050565b60008115159050919050565b610c1281610bfd565b82525050565b600060a082019050610c2d6000830188610b7a565b610c3a6020830187610afd565b610c476040830186610afd565b610c546060830185610afd565b610c616080830184610c09565b9695505050505050565b610c7481610b70565b82525050565b610c8381610a6b565b82525050565b610c9281610bfd565b82525050565b60a082016000820151610cae6000850182610c6b565b506020820151610cc16020850182610c7a565b506040820151610cd46040850182610c7a565b506060820151610ce76060850182610c7a565b506080820151610cfa6080850182610c89565b50505050565b600060a082019050610d156000830184610c98565b92915050565b600073ffffffffffffffffffffffffffffffffffffffff82169050919050565b6000610d4682610d1b565b9050919050565b610d5681610d3b565b82525050565b6000602082019050610d716000830184610d4d565b92915050565b600082825260208201905092915050565b7f4f6e6c792061646d696e2063616e207570646174652064617461000000000000600082015250565b6000610dbe601a83610d77565b9150610dc982610d88565b602082019050919050565b60006020820190508181036000830152610ded81610db1565b9050919050565b600081519050919050565b600081905092915050565b60005b83811015610e28578082015181840152602081019050610e0d565b60008484015250505050565b6000610e3f82610df4565b610e498185610dff565b9350610e59818560208601610e0a565b80840191505092915050565b6000610e718284610e34565b915081905092915050565b7f536869706d656e74206e6f7420666f756e640000000000000000000000000000600082015250565b6000610eb2601283610d77565b9150610ebd82610e7c565b602082019050919050565b60006020820190508181036000830152610ee181610ea5565b9050919050565b7f4d69736d6174636820696e20736869706d656e74206461746100000000000000600082015250565b6000610f1e601983610d77565b9150610f2982610ee8565b602082019050919050565b6000604082019050610f496000830184610b7a565b8181036020830152610f5a81610f11565b905092915050565b6000604082019050610f776000830185610b7a565b610f846020830184610afd565b9392505050565b7f536869706d656e7420616c726561647920657869737473000000000000000000600082015250565b6000610fc1601783610d77565b9150610fcc82610f8b565b602082019050919050565b60006020820190508181036000830152610ff081610fb4565b9050919050565b7f4e487b7100000000000000000000000000000000000000000000000000000000600052601160045260246000fd5b600061103182610a6b565b91507fffffffffffffffffffffffffffffffffffffffffffffffffffffffffffffffff820361106357611062610ff7565b5b60018201905091905056fea2646970667358221220fba59f39a00e6f2a39a9002c989f890254b134e50174b25a15e38cdc8473653064736f6c634300081c0033","opcodes":"PUSH1 0x80 PUSH1 0x40 MSTORE CALLVALUE DUP1 ISZERO PUSH1 0xF JUMPI PUSH1 0x0 DUP1 REVERT JUMPDEST POP CALLER PUSH1 0x2 PUSH1 0x0 PUSH2 0x100 EXP DUP2 SLOAD DUP2 PUSH20 0xFFFFFFFFFFFFFFFFFFFFFFFFFFFFFFFFFFFFFFFF MUL NOT AND SWAP1 DUP4 PUSH20 0xFFFFFFFFFFFFFFFFFFFFFFFFFFFFFFFFFFFFFFFF AND MUL OR SWAP1 SSTORE POP PUSH2 0x10A4 DUP1 PUSH2 0x60 PUSH1 0x0 CODECOPY PUSH1 0x0 RETURN INVALID PUSH1 0x80 PUSH1 0x40 MSTORE CALLVALUE DUP1 ISZERO PUSH2 0x10 JUMPI PUSH1 0x0 DUP1 REVERT JUMPDEST POP PUSH1 0x4 CALLDATASIZE LT PUSH2 0x88 JUMPI PUSH1 0x0 CALLDATALOAD PUSH1 0xE0 SHR DUP1 PUSH4 0xD8D2BD36 GT PUSH2 0x5B JUMPI DUP1 PUSH4 0xD8D2BD36 EQ PUSH2 0x12B JUMPI DUP1 PUSH4 0xDA34F3D5 EQ PUSH2 0x147 JUMPI DUP1 PUSH4 0xF58B3939 EQ PUSH2 0x177 JUMPI DUP1 PUSH4 0xF851A440 EQ PUSH2 0x193 JUMPI PUSH2 0x88 JUMP JUMPDEST DUP1 PUSH4 0xFB7D7D3 EQ PUSH2 0x8D JUMPI DUP1 PUSH4 0xAACE20B7 EQ PUSH2 0xA9 JUMPI DUP1 PUSH4 0xB934860C EQ PUSH2 0xC7 JUMPI DUP1 PUSH4 0xD87B4041 EQ PUSH2 0xF7 JUMPI JUMPDEST PUSH1 0x0 DUP1 REVERT JUMPDEST PUSH2 0xA7 PUSH1 0x4 DUP1 CALLDATASIZE SUB DUP2 ADD SWAP1 PUSH2 0xA2 SWAP2 SWAP1 PUSH2 0xAA1 JUMP JUMPDEST PUSH2 0x1B1 JUMP JUMPDEST STOP JUMPDEST PUSH2 0xB1 PUSH2 0x3EE JUMP JUMPDEST PUSH1 0x40 MLOAD PUSH2 0xBE SWAP2 SWAP1 PUSH2 0xB0C JUMP JUMPDEST PUSH1 0x40 MLOAD DUP1 SWAP2 SUB SWAP1 RETURN JUMPDEST PUSH2 0xE1 PUSH1 0x4 DUP1 CALLDATASIZE SUB DUP2 ADD SWAP1 PUSH2 0xDC SWAP2 SWAP1 PUSH2 0xB27 JUMP JUMPDEST PUSH2 0x3F4 JUMP JUMPDEST PUSH1 0x40 MLOAD PUSH2 0xEE SWAP2 SWAP1 PUSH2 0xB89 JUMP JUMPDEST PUSH1 0x40 MLOAD DUP1 SWAP2 SUB SWAP1 RETURN JUMPDEST PUSH2 0x111 PUSH1 0x4 DUP1 CALLDATASIZE SUB DUP2 ADD SWAP1 PUSH2 0x10C SWAP2 SWAP1 PUSH2 0xBD0 JUMP JUMPDEST PUSH2 0x424 JUMP JUMPDEST PUSH1 0x40 MLOAD PUSH2 0x122 SWAP6 SWAP5 SWAP4 SWAP3 SWAP2 SWAP1 PUSH2 0xC18 JUMP JUMPDEST PUSH1 0x40 MLOAD DUP1 SWAP2 SUB SWAP1 RETURN JUMPDEST PUSH2 0x145 PUSH1 0x4 DUP1 CALLDATASIZE SUB DUP2 ADD SWAP1 PUSH2 0x140 SWAP2 SWAP1 PUSH2 0xAA1 JUMP JUMPDEST PUSH2 0x467 JUMP JUMPDEST STOP JUMPDEST PUSH2 0x161 PUSH1 0x4 DUP1 CALLDATASIZE SUB DUP2 ADD SWAP1 PUSH2 0x15C SWAP2 SWAP1 PUSH2 0xB27 JUMP JUMPDEST PUSH2 0x659 JUMP JUMPDEST PUSH1 0x40 MLOAD PUSH2 0x16E SWAP2 SWAP1 PUSH2 0xD00 JUMP JUMPDEST PUSH1 0x40 MLOAD DUP1 SWAP2 SUB SWAP1 RETURN JUMPDEST PUSH2 0x191 PUSH1 0x4 DUP1 CALLDATASIZE SUB DUP2 ADD SWAP1 PUSH2 0x18C SWAP2 SWAP1 PUSH2 0xAA1 JUMP JUMPDEST PUSH2 0x74C JUMP JUMPDEST STOP JUMPDEST PUSH2 0x19B PUSH2 0x8B7 JUMP JUMPDEST PUSH1 0x40 MLOAD PUSH2 0x1A8 SWAP2 SWAP1 PUSH2 0xD5C JUMP JUMPDEST PUSH1 0x40 MLOAD DUP1 SWAP2 SUB SWAP1 RETURN JUMPDEST PUSH1 0x2 PUSH1 0x0 SWAP1 SLOAD SWAP1 PUSH2 0x100 EXP SWAP1 DIV PUSH20 0xFFFFFFFFFFFFFFFFFFFFFFFFFFFFFFFFFFFFFFFF AND PUSH20 0xFFFFFFFFFFFFFFFFFFFFFFFFFFFFFFFFFFFFFFFF AND CALLER PUSH20 0xFFFFFFFFFFFFFFFFFFFFFFFFFFFFFFFFFFFFFFFF AND EQ PUSH2 0x241 JUMPI PUSH1 0x40 MLOAD PUSH32 0x8C379A000000000000000000000000000000000000000000000000000000000 DUP2 MSTORE PUSH1 0x4 ADD PUSH2 0x238 SWAP1 PUSH2 0xDD4 JUMP JUMPDEST PUSH1 0x40 MLOAD DUP1 SWAP2 SUB SWAP1 REVERT JUMPDEST PUSH1 0x0 DUP3 PUSH1 0x40 MLOAD PUSH1 0x20 ADD PUSH2 0x254 SWAP2 SWAP1 PUSH2 0xE65 JUMP JUMPDEST PUSH1 0x40 MLOAD PUSH1 0x20 DUP2 DUP4 SUB SUB DUP2 MSTORE SWAP1 PUSH1 0x40 MSTORE DUP1 MLOAD SWAP1 PUSH1 0x20 ADD KECCAK256 SWAP1 POP PUSH1 0x0 DUP1 PUSH1 0x0 DUP4 DUP2 MSTORE PUSH1 0x20 ADD SWAP1 DUP2 MSTORE PUSH1 0x20 ADD PUSH1 0x0 KECCAK256 PUSH1 0x0 ADD SLOAD SUB PUSH2 0x2C4 JUMPI PUSH1 0x40 MLOAD PUSH32 0x8C379A000000000000000000000000000000000000000000000000000000000 DUP2 MSTORE PUSH1 0x4 ADD PUSH2 0x2BB SWAP1 PUSH2 0xEC8 JUMP JUMPDEST PUSH1 0x40 MLOAD DUP1 SWAP2 SUB SWAP1 REVERT JUMPDEST DUP2 PUSH1 0x0 DUP1 DUP4 DUP2 MSTORE PUSH1 0x20 ADD SWAP1 DUP2 MSTORE PUSH1 0x20 ADD PUSH1 0x0 KECCAK256 PUSH1 0x3 ADD DUP2 SWAP1 SSTORE POP PUSH1 0x0 DUP1 DUP3 DUP2 MSTORE PUSH1 0x20 ADD SWAP1 DUP2 MSTORE PUSH1 0x20 ADD PUSH1 0x0 KECCAK256 PUSH1 0x2 ADD SLOAD PUSH1 0x0 DUP1 DUP4 DUP2 MSTORE PUSH1 0x20 ADD SWAP1 DUP2 MSTORE PUSH1 0x20 ADD PUSH1 0x0 KECCAK256 PUSH1 0x1 ADD SLOAD EQ DUP1 ISZERO PUSH2 0x340 JUMPI POP PUSH1 0x0 DUP1 DUP3 DUP2 MSTORE PUSH1 0x20 ADD SWAP1 DUP2 MSTORE PUSH1 0x20 ADD PUSH1 0x0 KECCAK256 PUSH1 0x3 ADD SLOAD PUSH1 0x0 DUP1 DUP4 DUP2 MSTORE PUSH1 0x20 ADD SWAP1 DUP2 MSTORE PUSH1 0x20 ADD PUSH1 0x0 KECCAK256 PUSH1 0x2 ADD SLOAD EQ JUMPDEST ISZERO PUSH2 0x378 JUMPI PUSH1 0x1 PUSH1 0x0 DUP1 DUP4 DUP2 MSTORE PUSH1 0x20 ADD SWAP1 DUP2 MSTORE PUSH1 0x20 ADD PUSH1 0x0 KECCAK256 PUSH1 0x4 ADD PUSH1 0x0 PUSH2 0x100 EXP DUP2 SLOAD DUP2 PUSH1 0xFF MUL NOT AND SWAP1 DUP4 ISZERO ISZERO MUL OR SWAP1 SSTORE POP PUSH2 0x3B0 JUMP JUMPDEST PUSH32 0x2B1248A87322396CBE1F405D6C43BB7DBA91AFD7B55E61079EBC9B46D6C557AB DUP2 PUSH1 0x40 MLOAD PUSH2 0x3A7 SWAP2 SWAP1 PUSH2 0xF34 JUMP JUMPDEST PUSH1 0x40 MLOAD DUP1 SWAP2 SUB SWAP1 LOG1 JUMPDEST PUSH32 0x50015543695DDA9B9F58B58FA458B1EAAE38AC4C4D8F83CF23BFF1A950609839 DUP2 DUP4 PUSH1 0x40 MLOAD PUSH2 0x3E1 SWAP3 SWAP2 SWAP1 PUSH2 0xF62 JUMP JUMPDEST PUSH1 0x40 MLOAD DUP1 SWAP2 SUB SWAP1 LOG1 POP POP POP JUMP JUMPDEST PUSH1 0x1 SLOAD DUP2 JUMP JUMPDEST PUSH1 0x0 DUP2 PUSH1 0x40 MLOAD PUSH1 0x20 ADD PUSH2 0x407 SWAP2 SWAP1 PUSH2 0xE65 JUMP JUMPDEST PUSH1 0x40 MLOAD PUSH1 0x20 DUP2 DUP4 SUB SUB DUP2 MSTORE SWAP1 PUSH1 0x40 MSTORE DUP1 MLOAD SWAP1 PUSH1 0x20 ADD KECCAK256 SWAP1 POP SWAP2 SWAP1 POP JUMP JUMPDEST PUSH1 0x0 PUSH1 0x20 MSTORE DUP1 PUSH1 0x0 MSTORE PUSH1 0x40 PUSH1 0x0 KECCAK256 PUSH1 0x0 SWAP2 POP SWAP1 POP DUP1 PUSH1 0x0 ADD SLOAD SWAP1 DUP1 PUSH1 0x1 ADD SLOAD SWAP1 DUP1 PUSH1 0x2 ADD SLOAD SWAP1 DUP1 PUSH1 0x3 ADD SLOAD SWAP1 DUP1 PUSH1 0x4 ADD PUSH1 0x0 SWAP1 SLOAD SWAP1 PUSH2 0x100 EXP SWAP1 DIV PUSH1 0xFF AND SWAP1 POP DUP6 JUMP JUMPDEST PUSH1 0x2 PUSH1 0x0 SWAP1 SLOAD SWAP1 PUSH2 0x100 EXP SWAP1 DIV PUSH20 0xFFFFFFFFFFFFFFFFFFFFFFFFFFFFFFFFFFFFFFFF AND PUSH20 0xFFFFFFFFFFFFFFFFFFFFFFFFFFFFFFFFFFFFFFFF AND CALLER PUSH20 0xFFFFFFFFFFFFFFFFFFFFFFFFFFFFFFFFFFFFFFFF AND EQ PUSH2 0x4F7 JUMPI PUSH1 0x40 MLOAD PUSH32 0x8C379A000000000000000000000000000000000000000000000000000000000 DUP2 MSTORE PUSH1 0x4 ADD PUSH2 0x4EE SWAP1 PUSH2 0xDD4 JUMP JUMPDEST PUSH1 0x40 MLOAD DUP1 SWAP2 SUB SWAP1 REVERT JUMPDEST PUSH1 0x0 DUP3 PUSH1 0x40 MLOAD PUSH1 0x20 ADD PUSH2 0x50A SWAP2 SWAP1 PUSH2 0xE65 JUMP JUMPDEST PUSH1 0x40 MLOAD PUSH1 0x20 DUP2 DUP4 SUB SUB DUP2 MSTORE SWAP1 PUSH1 0x40 MSTORE DUP1 MLOAD SWAP1 PUSH1 0x20 ADD KECCAK256 SWAP1 POP PUSH1 0x0 DUP1 PUSH1 0x0 DUP4 DUP2 MSTORE PUSH1 0x20 ADD SWAP1 DUP2 MSTORE PUSH1 0x20 ADD PUSH1 0x0 KECCAK256 PUSH1 0x0 ADD SLOAD EQ PUSH2 0x57A JUMPI PUSH1 0x40 MLOAD PUSH32 0x8C379A000000000000000000000000000000000000000000000000000000000 DUP2 MSTORE PUSH1 0x4 ADD PUSH2 0x571 SWAP1 PUSH2 0xFD7 JUMP JUMPDEST PUSH1 0x40 MLOAD DUP1 SWAP2 SUB SWAP1 REVERT JUMPDEST PUSH1 0x40 MLOAD DUP1 PUSH1 0xA0 ADD PUSH1 0x40 MSTORE DUP1 DUP3 DUP2 MSTORE PUSH1 0x20 ADD DUP4 DUP2 MSTORE PUSH1 0x20 ADD PUSH1 0x0 DUP2 MSTORE PUSH1 0x20 ADD PUSH1 0x0 DUP2 MSTORE PUSH1 0x20 ADD PUSH1 0x0 ISZERO ISZERO DUP2 MSTORE POP PUSH1 0x0 DUP1 DUP4 DUP2 MSTORE PUSH1 0x20 ADD SWAP1 DUP2 MSTORE PUSH1 0x20 ADD PUSH1 0x0 KECCAK256 PUSH1 0x0 DUP3 ADD MLOAD DUP2 PUSH1 0x0 ADD SSTORE PUSH1 0x20 DUP3 ADD MLOAD DUP2 PUSH1 0x1 ADD SSTORE PUSH1 0x40 DUP3 ADD MLOAD DUP2 PUSH1 0x2 ADD SSTORE PUSH1 0x60 DUP3 ADD MLOAD DUP2 PUSH1 0x3 ADD SSTORE PUSH1 0x80 DUP3 ADD MLOAD DUP2 PUSH1 0x4 ADD PUSH1 0x0 PUSH2 0x100 EXP DUP2 SLOAD DUP2 PUSH1 0xFF MUL NOT AND SWAP1 DUP4 ISZERO ISZERO MUL OR SWAP1 SSTORE POP SWAP1 POP POP PUSH1 0x1 PUSH1 0x0 DUP2 SLOAD DUP1 SWAP3 SWAP2 SWAP1 PUSH2 0x616 SWAP1 PUSH2 0x1026 JUMP JUMPDEST SWAP2 SWAP1 POP SSTORE POP PUSH32 0x177D9D05160271292838D588CD0FC808C1C3CA7BE36F03729FB51E5F624F17DD DUP2 DUP4 PUSH1 0x40 MLOAD PUSH2 0x64C SWAP3 SWAP2 SWAP1 PUSH2 0xF62 JUMP JUMPDEST PUSH1 0x40 MLOAD DUP1 SWAP2 SUB SWAP1 LOG1 POP POP POP JUMP JUMPDEST PUSH2 0x661 PUSH2 0x8DD JUMP JUMPDEST PUSH1 0x0 DUP3 PUSH1 0x40 MLOAD PUSH1 0x20 ADD PUSH2 0x674 SWAP2 SWAP1 PUSH2 0xE65 JUMP JUMPDEST PUSH1 0x40 MLOAD PUSH1 0x20 DUP2 DUP4 SUB SUB DUP2 MSTORE SWAP1 PUSH1 0x40 MSTORE DUP1 MLOAD SWAP1 PUSH1 0x20 ADD KECCAK256 SWAP1 POP PUSH1 0x0 DUP1 PUSH1 0x0 DUP4 DUP2 MSTORE PUSH1 0x20 ADD SWAP1 DUP2 MSTORE PUSH1 0x20 ADD PUSH1 0x0 KECCAK256 PUSH1 0x0 ADD SLOAD SUB PUSH2 0x6E4 JUMPI PUSH1 0x40 MLOAD PUSH32 0x8C379A000000000000000000000000000000000000000000000000000000000 DUP2 MSTORE PUSH1 0x4 ADD PUSH2 0x6DB SWAP1 PUSH2 0xEC8 JUMP JUMPDEST PUSH1 0x40 MLOAD DUP1 SWAP2 SUB SWAP1 REVERT JUMPDEST PUSH1 0x0 DUP1 DUP3 DUP2 MSTORE PUSH1 0x20 ADD SWAP1 DUP2 MSTORE PUSH1 0x20 ADD PUSH1 0x0 KECCAK256 PUSH1 0x40 MLOAD DUP1 PUSH1 0xA0 ADD PUSH1 0x40 MSTORE SWAP1 DUP2 PUSH1 0x0 DUP3 ADD SLOAD DUP2 MSTORE PUSH1 0x20 ADD PUSH1 0x1 DUP3 ADD SLOAD DUP2 MSTORE PUSH1 0x20 ADD PUSH1 0x2 DUP3 ADD SLOAD DUP2 MSTORE PUSH1 0x20 ADD PUSH1 0x3 DUP3 ADD SLOAD DUP2 MSTORE PUSH1 0x20 ADD PUSH1 0x4 DUP3 ADD PUSH1 0x0 SWAP1 SLOAD SWAP1 PUSH2 0x100 EXP SWAP1 DIV PUSH1 0xFF AND ISZERO ISZERO ISZERO ISZERO DUP2 MSTORE POP POP SWAP2 POP POP SWAP2 SWAP1 POP JUMP JUMPDEST PUSH1 0x2 PUSH1 0x0 SWAP1 SLOAD SWAP1 PUSH2 0x100 EXP SWAP1 DIV PUSH20 0xFFFFFFFFFFFFFFFFFFFFFFFFFFFFFFFFFFFFFFFF AND PUSH20 0xFFFFFFFFFFFFFFFFFFFFFFFFFFFFFFFFFFFFFFFF AND CALLER PUSH20 0xFFFFFFFFFFFFFFFFFFFFFFFFFFFFFFFFFFFFFFFF AND EQ PUSH2 0x7DC JUMPI PUSH1 0x40 MLOAD PUSH32 0x8C379A000000000000000000000000000000000000000000000000000000000 DUP2 MSTORE PUSH1 0x4 ADD PUSH2 0x7D3 SWAP1 PUSH2 0xDD4 JUMP JUMPDEST PUSH1 0x40 MLOAD DUP1 SWAP2 SUB SWAP1 REVERT JUMPDEST PUSH1 0x0 DUP3 PUSH1 0x40 MLOAD PUSH1 0x20 ADD PUSH2 0x7EF SWAP2 SWAP1 PUSH2 0xE65 JUMP JUMPDEST PUSH1 0x40 MLOAD PUSH1 0x20 DUP2 DUP4 SUB SUB DUP2 MSTORE SWAP1 PUSH1 0x40 MSTORE DUP1 MLOAD SWAP1 PUSH1 0x20 ADD KECCAK256 SWAP1 POP PUSH1 0x0 DUP1 PUSH1 0x0 DUP4 DUP2 MSTORE PUSH1 0x20 ADD SWAP1 DUP2 MSTORE PUSH1 0x20 ADD PUSH1 0x0 KECCAK256 PUSH1 0x0 ADD SLOAD SUB PUSH2 0x85F JUMPI PUSH1 0x40 MLOAD PUSH32 0x8C379A000000000000000000000000000000000000000000000000000000000 DUP2 MSTORE PUSH1 0x4 ADD PUSH2 0x856 SWAP1 PUSH2 0xEC8 JUMP JUMPDEST PUSH1 0x40 MLOAD DUP1 SWAP2 SUB SWAP1 REVERT JUMPDEST DUP2 PUSH1 0x0 DUP1 DUP4 DUP2 MSTORE PUSH1 0x20 ADD SWAP1 DUP2 MSTORE PUSH1 0x20 ADD PUSH1 0x0 KECCAK256 PUSH1 0x2 ADD DUP2 SWAP1 SSTORE POP PUSH32 0xF03BA798CCDEC2F00B7F634DD07AE3E7F46F21C8AACACC50D812A344C7AB0BC5 DUP2 DUP4 PUSH1 0x40 MLOAD PUSH2 0x8AA SWAP3 SWAP2 SWAP1 PUSH2 0xF62 JUMP JUMPDEST PUSH1 0x40 MLOAD DUP1 SWAP2 SUB SWAP1 LOG1 POP POP POP JUMP JUMPDEST PUSH1 0x2 PUSH1 0x0 SWAP1 SLOAD SWAP1 PUSH2 0x100 EXP SWAP1 DIV PUSH20 0xFFFFFFFFFFFFFFFFFFFFFFFFFFFFFFFFFFFFFFFF AND DUP2 JUMP JUMPDEST PUSH1 0x40 MLOAD DUP1 PUSH1 0xA0 ADD PUSH1 0x40 MSTORE DUP1 PUSH1 0x0 DUP1 NOT AND DUP2 MSTORE PUSH1 0x20 ADD PUSH1 0x0 DUP2 MSTORE PUSH1 0x20 ADD PUSH1 0x0 DUP2 MSTORE PUSH1 0x20 ADD PUSH1 0x0 DUP2 MSTORE PUSH1 0x20 ADD PUSH1 0x0 ISZERO ISZERO DUP2 MSTORE POP SWAP1 JUMP JUMPDEST PUSH1 0x0 PUSH1 0x40 MLOAD SWAP1 POP SWAP1 JUMP JUMPDEST PUSH1 0x0 DUP1 REVERT JUMPDEST PUSH1 0x0 DUP1 REVERT JUMPDEST PUSH1 0x0 DUP1 REVERT JUMPDEST PUSH1 0x0 DUP1 REVERT JUMPDEST PUSH1 0x0 PUSH1 0x1F NOT PUSH1 0x1F DUP4 ADD AND SWAP1 POP SWAP2 SWAP1 POP JUMP JUMPDEST PUSH32 0x4E487B7100000000000000000000000000000000000000000000000000000000 PUSH1 0x0 MSTORE PUSH1 0x41 PUSH1 0x4 MSTORE PUSH1 0x24 PUSH1 0x0 REVERT JUMPDEST PUSH2 0x978 DUP3 PUSH2 0x92F JUMP JUMPDEST DUP2 ADD DUP2 DUP2 LT PUSH8 0xFFFFFFFFFFFFFFFF DUP3 GT OR ISZERO PUSH2 0x997 JUMPI PUSH2 0x996 PUSH2 0x940 JUMP JUMPDEST JUMPDEST DUP1 PUSH1 0x40 MSTORE POP POP POP JUMP JUMPDEST PUSH1 0x0 PUSH2 0x9AA PUSH2 0x911 JUMP JUMPDEST SWAP1 POP PUSH2 0x9B6 DUP3 DUP3 PUSH2 0x96F JUMP JUMPDEST SWAP2 SWAP1 POP JUMP JUMPDEST PUSH1 0x0 PUSH8 0xFFFFFFFFFFFFFFFF DUP3 GT ISZERO PUSH2 0x9D6 JUMPI PUSH2 0x9D5 PUSH2 0x940 JUMP JUMPDEST JUMPDEST PUSH2 0x9DF DUP3 PUSH2 0x92F JUMP JUMPDEST SWAP1 POP PUSH1 0x20 DUP2 ADD SWAP1 POP SWAP2 SWAP1 POP JUMP JUMPDEST DUP3 DUP2 DUP4 CALLDATACOPY PUSH1 0x0 DUP4 DUP4 ADD MSTORE POP POP POP JUMP JUMPDEST PUSH1 0x0 PUSH2 0xA0E PUSH2 0xA09 DUP5 PUSH2 0x9BB JUMP JUMPDEST PUSH2 0x9A0 JUMP JUMPDEST SWAP1 POP DUP3 DUP2 MSTORE PUSH1 0x20 DUP2 ADD DUP5 DUP5 DUP5 ADD GT ISZERO PUSH2 0xA2A JUMPI PUSH2 0xA29 PUSH2 0x92A JUMP JUMPDEST JUMPDEST PUSH2 0xA35 DUP5 DUP3 DUP6 PUSH2 0x9EC JUMP JUMPDEST POP SWAP4 SWAP3 POP POP POP JUMP JUMPDEST PUSH1 0x0 DUP3 PUSH1 0x1F DUP4 ADD SLT PUSH2 0xA52 JUMPI PUSH2 0xA51 PUSH2 0x925 JUMP JUMPDEST JUMPDEST DUP2 CALLDATALOAD PUSH2 0xA62 DUP5 DUP3 PUSH1 0x20 DUP7 ADD PUSH2 0x9FB JUMP JUMPDEST SWAP2 POP POP SWAP3 SWAP2 POP POP JUMP JUMPDEST PUSH1 0x0 DUP2 SWAP1 POP SWAP2 SWAP1 POP JUMP JUMPDEST PUSH2 0xA7E DUP2 PUSH2 0xA6B JUMP JUMPDEST DUP2 EQ PUSH2 0xA89 JUMPI PUSH1 0x0 DUP1 REVERT JUMPDEST POP JUMP JUMPDEST PUSH1 0x0 DUP2 CALLDATALOAD SWAP1 POP PUSH2 0xA9B DUP2 PUSH2 0xA75 JUMP JUMPDEST SWAP3 SWAP2 POP POP JUMP JUMPDEST PUSH1 0x0 DUP1 PUSH1 0x40 DUP4 DUP6 SUB SLT ISZERO PUSH2 0xAB8 JUMPI PUSH2 0xAB7 PUSH2 0x91B JUMP JUMPDEST JUMPDEST PUSH1 0x0 DUP4 ADD CALLDATALOAD PUSH8 0xFFFFFFFFFFFFFFFF DUP2 GT ISZERO PUSH2 0xAD6 JUMPI PUSH2 0xAD5 PUSH2 0x920 JUMP JUMPDEST JUMPDEST PUSH2 0xAE2 DUP6 DUP3 DUP7 ADD PUSH2 0xA3D JUMP JUMPDEST SWAP3 POP POP PUSH1 0x20 PUSH2 0xAF3 DUP6 DUP3 DUP7 ADD PUSH2 0xA8C JUMP JUMPDEST SWAP2 POP POP SWAP3 POP SWAP3 SWAP1 POP JUMP JUMPDEST PUSH2 0xB06 DUP2 PUSH2 0xA6B JUMP JUMPDEST DUP3 MSTORE POP POP JUMP JUMPDEST PUSH1 0x0 PUSH1 0x20 DUP3 ADD SWAP1 POP PUSH2 0xB21 PUSH1 0x0 DUP4 ADD DUP5 PUSH2 0xAFD JUMP JUMPDEST SWAP3 SWAP2 POP POP JUMP JUMPDEST PUSH1 0x0 PUSH1 0x20 DUP3 DUP5 SUB SLT ISZERO PUSH2 0xB3D JUMPI PUSH2 0xB3C PUSH2 0x91B JUMP JUMPDEST JUMPDEST PUSH1 0x0 DUP3 ADD CALLDATALOAD PUSH8 0xFFFFFFFFFFFFFFFF DUP2 GT ISZERO PUSH2 0xB5B JUMPI PUSH2 0xB5A PUSH2 0x920 JUMP JUMPDEST JUMPDEST PUSH2 0xB67 DUP5 DUP3 DUP6 ADD PUSH2 0xA3D JUMP JUMPDEST SWAP2 POP POP SWAP3 SWAP2 POP POP JUMP JUMPDEST PUSH1 0x0 DUP2 SWAP1 POP SWAP2 SWAP1 POP JUMP JUMPDEST PUSH2 0xB83 DUP2 PUSH2 0xB70 JUMP JUMPDEST DUP3 MSTORE POP POP JUMP JUMPDEST PUSH1 0x0 PUSH1 0x20 DUP3 ADD SWAP1 POP PUSH2 0xB9E PUSH1 0x0 DUP4 ADD DUP5 PUSH2 0xB7A JUMP JUMPDEST SWAP3 SWAP2 POP POP JUMP JUMPDEST PUSH2 0xBAD DUP2 PUSH2 0xB70 JUMP JUMPDEST DUP2 EQ PUSH2 0xBB8 JUMPI PUSH1 0x0 DUP1 REVERT JUMPDEST POP JUMP JUMPDEST PUSH1 0x0 DUP2 CALLDATALOAD SWAP1 POP PUSH2 0xBCA DUP2 PUSH2 0xBA4 JUMP JUMPDEST SWAP3 SWAP2 POP POP JUMP JUMPDEST PUSH1 0x0 PUSH1 0x20 DUP3 DUP5 SUB SLT ISZERO PUSH2 0xBE6 JUMPI PUSH2 0xBE5 PUSH2 0x91B JUMP JUMPDEST JUMPDEST PUSH1 0x0 PUSH2 0xBF4 DUP5 DUP3 DUP6 ADD PUSH2 0xBBB JUMP JUMPDEST SWAP2 POP POP SWAP3 SWAP2 POP POP JUMP JUMPDEST PUSH1 0x0 DUP2 ISZERO ISZERO SWAP1 POP SWAP2 SWAP1 POP JUMP JUMPDEST PUSH2 0xC12 DUP2 PUSH2 0xBFD JUMP JUMPDEST DUP3 MSTORE POP POP JUMP JUMPDEST PUSH1 0x0 PUSH1 0xA0 DUP3 ADD SWAP1 POP PUSH2 0xC2D PUSH1 0x0 DUP4 ADD DUP9 PUSH2 0xB7A JUMP JUMPDEST PUSH2 0xC3A PUSH1 0x20 DUP4 ADD DUP8 PUSH2 0xAFD JUMP JUMPDEST PUSH2 0xC47 PUSH1 0x40 DUP4 ADD DUP7 PUSH2 0xAFD JUMP JUMPDEST PUSH2 0xC54 PUSH1 0x60 DUP4 ADD DUP6 PUSH2 0xAFD JUMP JUMPDEST PUSH2 0xC61 PUSH1 0x80 DUP4 ADD DUP5 PUSH2 0xC09 JUMP JUMPDEST SWAP7 SWAP6 POP POP POP POP POP POP JUMP JUMPDEST PUSH2 0xC74 DUP2 PUSH2 0xB70 JUMP JUMPDEST DUP3 MSTORE POP POP JUMP JUMPDEST PUSH2 0xC83 DUP2 PUSH2 0xA6B JUMP JUMPDEST DUP3 MSTORE POP POP JUMP JUMPDEST PUSH2 0xC92 DUP2 PUSH2 0xBFD JUMP JUMPDEST DUP3 MSTORE POP POP JUMP JUMPDEST PUSH1 0xA0 DUP3 ADD PUSH1 0x0 DUP3 ADD MLOAD PUSH2 0xCAE PUSH1 0x0 DUP6 ADD DUP3 PUSH2 0xC6B JUMP JUMPDEST POP PUSH1 0x20 DUP3 ADD MLOAD PUSH2 0xCC1 PUSH1 0x20 DUP6 ADD DUP3 PUSH2 0xC7A JUMP JUMPDEST POP PUSH1 0x40 DUP3 ADD MLOAD PUSH2 0xCD4 PUSH1 0x40 DUP6 ADD DUP3 PUSH2 0xC7A JUMP JUMPDEST POP PUSH1 0x60 DUP3 ADD MLOAD PUSH2 0xCE7 PUSH1 0x60 DUP6 ADD DUP3 PUSH2 0xC7A JUMP JUMPDEST POP PUSH1 0x80 DUP3 ADD MLOAD PUSH2 0xCFA PUSH1 0x80 DUP6 ADD DUP3 PUSH2 0xC89 JUMP JUMPDEST POP POP POP POP JUMP JUMPDEST PUSH1 0x0 PUSH1 0xA0 DUP3 ADD SWAP1 POP PUSH2 0xD15 PUSH1 0x0 DUP4 ADD DUP5 PUSH2 0xC98 JUMP JUMPDEST SWAP3 SWAP2 POP POP JUMP JUMPDEST PUSH1 0x0 PUSH20 0xFFFFFFFFFFFFFFFFFFFFFFFFFFFFFFFFFFFFFFFF DUP3 AND SWAP1 POP SWAP2 SWAP1 POP JUMP JUMPDEST PUSH1 0x0 PUSH2 0xD46 DUP3 PUSH2 0xD1B JUMP JUMPDEST SWAP1 POP SWAP2 SWAP1 POP JUMP JUMPDEST PUSH2 0xD56 DUP2 PUSH2 0xD3B JUMP JUMPDEST DUP3 MSTORE POP POP JUMP JUMPDEST PUSH1 0x0 PUSH1 0x20 DUP3 ADD SWAP1 POP PUSH2 0xD71 PUSH1 0x0 DUP4 ADD DUP5 PUSH2 0xD4D JUMP JUMPDEST SWAP3 SWAP2 POP POP JUMP JUMPDEST PUSH1 0x0 DUP3 DUP3 MSTORE PUSH1 0x20 DUP3 ADD SWAP1 POP SWAP3 SWAP2 POP POP JUMP JUMPDEST PUSH32 0x4F6E6C792061646D696E2063616E207570646174652064617461000000000000 PUSH1 0x0 DUP3 ADD MSTORE POP JUMP JUMPDEST PUSH1 0x0 PUSH2 0xDBE PUSH1 0x1A DUP4 PUSH2 0xD77 JUMP JUMPDEST SWAP2 POP PUSH2 0xDC9 DUP3 PUSH2 0xD88 JUMP JUMPDEST PUSH1 0x20 DUP3 ADD SWAP1 POP SWAP2 SWAP1 POP JUMP JUMPDEST PUSH1 0x0 PUSH1 0x20 DUP3 ADD SWAP1 POP DUP2 DUP2 SUB PUSH1 0x0 DUP4 ADD MSTORE PUSH2 0xDED DUP2 PUSH2 0xDB1 JUMP JUMPDEST SWAP1 POP SWAP2 SWAP1 POP JUMP JUMPDEST PUSH1 0x0 DUP2 MLOAD SWAP1 POP SWAP2 SWAP1 POP JUMP JUMPDEST PUSH1 0x0 DUP2 SWAP1 POP SWAP3 SWAP2 POP POP JUMP JUMPDEST PUSH1 0x0 JUMPDEST DUP4 DUP2 LT ISZERO PUSH2 0xE28 JUMPI DUP1 DUP3 ADD MLOAD DUP2 DUP5 ADD MSTORE PUSH1 0x20 DUP2 ADD SWAP1 POP PUSH2 0xE0D JUMP JUMPDEST PUSH1 0x0 DUP5 DUP5 ADD MSTORE POP POP POP POP JUMP JUMPDEST PUSH1 0x0 PUSH2 0xE3F DUP3 PUSH2 0xDF4 JUMP JUMPDEST PUSH2 0xE49 DUP2 DUP6 PUSH2 0xDFF JUMP JUMPDEST SWAP4 POP PUSH2 0xE59 DUP2 DUP6 PUSH1 0x20 DUP7 ADD PUSH2 0xE0A JUMP JUMPDEST DUP1 DUP5 ADD SWAP2 POP POP SWAP3 SWAP2 POP POP JUMP JUMPDEST PUSH1 0x0 PUSH2 0xE71 DUP3 DUP5 PUSH2 0xE34 JUMP JUMPDEST SWAP2 POP DUP2 SWAP1 POP SWAP3 SWAP2 POP POP JUMP JUMPDEST PUSH32 0x536869706D656E74206E6F7420666F756E640000000000000000000000000000 PUSH1 0x0 DUP3 ADD MSTORE POP JUMP JUMPDEST PUSH1 0x0 PUSH2 0xEB2 PUSH1 0x12 DUP4 PUSH2 0xD77 JUMP JUMPDEST SWAP2 POP PUSH2 0xEBD DUP3 PUSH2 0xE7C JUMP JUMPDEST PUSH1 0x20 DUP3 ADD SWAP1 POP SWAP2 SWAP1 POP JUMP JUMPDEST PUSH1 0x0 PUSH1 0x20 DUP3 ADD SWAP1 POP DUP2 DUP2 SUB PUSH1 0x0 DUP4 ADD MSTORE PUSH2 0xEE1 DUP2 PUSH2 0xEA5 JUMP JUMPDEST SWAP1 POP SWAP2 SWAP1 POP JUMP JUMPDEST PUSH32 0x4D69736D6174636820696E20736869706D656E74206461746100000000000000 PUSH1 0x0 DUP3 ADD MSTORE POP JUMP JUMPDEST PUSH1 0x0 PUSH2 0xF1E PUSH1 0x19 DUP4 PUSH2 0xD77 JUMP JUMPDEST SWAP2 POP PUSH2 0xF29 DUP3 PUSH2 0xEE8 JUMP JUMPDEST PUSH1 0x20 DUP3 ADD SWAP1 POP SWAP2 SWAP1 POP JUMP JUMPDEST PUSH1 0x0 PUSH1 0x40 DUP3 ADD SWAP1 POP PUSH2 0xF49 PUSH1 0x0 DUP4 ADD DUP5 PUSH2 0xB7A JUMP JUMPDEST DUP2 DUP2 SUB PUSH1 0x20 DUP4 ADD MSTORE PUSH2 0xF5A DUP2 PUSH2 0xF11 JUMP JUMPDEST SWAP1 POP SWAP3 SWAP2 POP POP JUMP JUMPDEST PUSH1 0x0 PUSH1 0x40 DUP3 ADD SWAP1 POP PUSH2 0xF77 PUSH1 0x0 DUP4 ADD DUP6 PUSH2 0xB7A JUMP JUMPDEST PUSH2 0xF84 PUSH1 0x20 DUP4 ADD DUP5 PUSH2 0xAFD JUMP JUMPDEST SWAP4 SWAP3 POP POP POP JUMP JUMPDEST PUSH32 0x536869706D656E7420616C726561647920657869737473000000000000000000 PUSH1 0x0 DUP3 ADD MSTORE POP JUMP JUMPDEST PUSH1 0x0 PUSH2 0xFC1 PUSH1 0x17 DUP4 PUSH2 0xD77 JUMP JUMPDEST SWAP2 POP PUSH2 0xFCC DUP3 PUSH2 0xF8B JUMP JUMPDEST PUSH1 0x20 DUP3 ADD SWAP1 POP SWAP2 SWAP1 POP JUMP JUMPDEST PUSH1 0x0 PUSH1 0x20 DUP3 ADD SWAP1 POP DUP2 DUP2 SUB PUSH1 0x0 DUP4 ADD MSTORE PUSH2 0xFF0 DUP2 PUSH2 0xFB4 JUMP JUMPDEST SWAP1 POP SWAP2 SWAP1 POP JUMP JUMPDEST PUSH32 0x4E487B7100000000000000000000000000000000000000000000000000000000 PUSH1 0x0 MSTORE PUSH1 0x11 PUSH1 0x4 MSTORE PUSH1 0x24 PUSH1 0x0 REVERT JUMPDEST PUSH1 0x0 PUSH2 0x1031 DUP3 PUSH2 0xA6B JUMP JUMPDEST SWAP2 POP PUSH32 0xFFFFFFFFFFFFFFFFFFFFFFFFFFFFFFFFFFFFFFFFFFFFFFFFFFFFFFFFFFFFFFFF DUP3 SUB PUSH2 0x1063 JUMPI PUSH2 0x1062 PUSH2 0xFF7 JUMP JUMPDEST JUMPDEST PUSH1 0x1 DUP3 ADD SWAP1 POP SWAP2 SWAP1 POP JUMP INVALID LOG2 PUSH5 0x6970667358 0x22 SLT KECCAK256 0xFB 0xA5 SWAP16 CODECOPY LOG0 0xE PUSH16 0x2A39A9002C989F890254B134E50174B2 GAS ISZERO 0xE3 DUP13 0xDC DUP5 PUSH20 0x653064736F6C634300081C003300000000000000 "},"methodIdentifiers":{"admin()":"f851a440","getShipment(string)":"da34f3d5","getShipmentKey(string)":"b934860c","recordDistribution(string,uint256)":"0fb7d7d3","recordReceived(string,uint256)":"f58b3939","recordShipment(string,uint256)":"d8d2bd36","shipmentCount()":"aace20b7","shipments(bytes32)":"d87b4041"}}}}}