{
  "_format": "hh-sol-artifact-1",
  "contractName": "ReliefShipment",
  "sourceName": "contracts/ReliefShipment.sol",
  "abi": [
    {
      "anonymous": false,
      "inputs": [
        {
          "indexed": false,
          "internalType": "bytes32",
          "name": "shipmentId",
          "type": "bytes32"
        },
        {
          "indexed": false,
          "internalType": "string",
          "name": "message",
          "type": "string"
        }
      ],
      "name": "DiscrepancyDetected",
      "type": "event"
    },
    {
      "anonymous": false,
      "inputs": [
        {
          "indexed": false,
          "internalType": "bytes32",
          "name": "shipmentId",
          "type": "bytes32"
        },
        {
          "indexed": false,
          "internalType": "uint256",
          "name": "totalDistributed",
          "type": "uint256"
        }
      ],
      "name": "DistributionUpdated",
      "type": "event"
    },
    {
      "anonymous": false,
      "inputs": [
        {
          "indexed": false,
          "internalType": "bytes32",
          "name": "shipmentId",
          "type": "bytes32"
        },
        {
          "indexed": false,
          "internalType": "uint256",
          "name": "totalReceived",
          "type": "uint256"
        }
      ],
      "name": "ShipmentReceived",
      "type": "event"
    },
    {
      "anonymous": false,
      "inputs": [
        {
          "indexed": false,
          "internalType": "bytes32",
          "name": "shipmentId",
          "type": "bytes32"
        },
        {
          "indexed": false,
          "internalType": "uint256",
          "name": "totalSent",
          "type": "uint256"
        }
      ],
      "name": "ShipmentRecorded",
      "type": "event"
    },
    {
      "inputs": [
        {
          "internalType": "string",
          "name": "_shipmentId",
          "type": "string"
        }
      ],
      "name": "getShipment",
      "outputs": [
        {
          "components": [
            {
              "internalType": "bytes32",
              "name": "shipmentId",
              "type": "bytes32"
            },
            {
              "internalType": "uint256",
              "name": "totalSent",
              "type": "uint256"
            },
            {
              "internalType": "uint256",
              "name": "totalReceived",
              "type": "uint256"
            },
            {
              "internalType": "uint256",
              "name": "totalDistributed",
              "type": "uint256"
            },
            {
              "internalType": "bool",
              "name": "isCompleted",
              "type": "bool"
            },
            {
              "internalType": "uint256",
              "name": "timestamp",
              "type": "uint256"
            }
          ],
          "internalType": "struct ReliefShipment.Shipment",
          "name": "",
          "type": "tuple"
        }
      ],
      "stateMutability": "view",
      "type": "function"
    },
    {
      "inputs": [
        {
          "internalType": "string",
          "name": "_shipmentId",
          "type": "string"
        }
      ],
      "name": "getShipmentKey",
      "outputs": [
        {
          "internalType": "bytes32",
          "name": "",
          "type": "bytes32"
        }
      ],
      "stateMutability": "pure",
      "type": "function"
    },
    {
      "inputs": [
        {
          "internalType": "string",
          "name": "_shipmentId",
          "type": "string"
        },
        {
          "internalType": "uint256",
          "name": "_totalDistributed",
          "type": "uint256"
        }
      ],
      "name": "recordDistribution",
      "outputs": [],
      "stateMutability": "nonpayable",
      "type": "function"
    },
    {
      "inputs": [
        {
          "internalType": "string",
          "name": "_shipmentId",
          "type": "string"
        },
        {
          "internalType": "uint256",
          "name": "_totalReceived",
          "type": "uint256"
        }
      ],
      "name": "recordReceived",
      "outputs": [],
      "stateMutability": "nonpayable",
      "type": "function"
    },
    {
      "inputs": [
        {
          "internalType": "string",
          "name": "_shipmentId",
          "type": "string"
        },
        {
          "internalType": "uint256",
          "name": "_totalSent",
          "type": "uint256"
        }
      ],
      "name": "recordShipment",
      "outputs": [],
      "stateMutability": "nonpayable",
      "type": "function"
    },
    {
      "inputs": [],
      "name": "shipmentCount",
      "outputs": [
        {
          "internalType": "uint256",
          "name": "",
          "type": "uint256"
        }
      ],
      "stateMutability": "view",
      "type": "function"
    },
    {
      "inputs": [
        {
          "internalType": "bytes32",
          "name": "",
          "type": "bytes32"
        }
      ],
      "name": "shipments",
      "outputs": [
        {
          "internalType": "bytes32",
          "name": "shipmentId",
          "type": "bytes32"
        },
        {
          "internalType": "uint256",
          "name": "totalSent",
          "type": "uint256"
        },
        {
          "internalType": "uint256",
          "name": "totalReceived",
          "type": "uint256"
        },
        {
          "internalType": "uint256",
          "name": "totalDistributed",
          "type": "uint256"
        },
        {
          "internalType": "bool",
          "name": "isCompleted",
          "type": "bool"
        },
        {
          "internalType": "uint256",
          "name": "timestamp",
          "type": "uint256"
        }
      ],
      "stateMutability": "view",
      "type": "function"
    }
  ],
  "bytecode": "0x6080604052348015600f57600080fd5b50610e268061001f6000396000f3fe608060405234801561001057600080fd5b506004361061007d5760003560e01c8063d87b40411161005b578063d87b4041146100ec578063d8d2bd3614610121578063da34f3d51461013d578063f58b39391461016d5761007d565b80630fb7d7d314610082578063aace20b71461009e578063b934860c146100bc575b600080fd5b61009c600480360381019061009791906108ca565b610189565b005b6100a6610336565b6040516100b39190610935565b60405180910390f35b6100d660048036038101906100d19190610950565b61033c565b6040516100e391906109b2565b60405180910390f35b610106600480360381019061010191906109f9565b61036c565b60405161011896959493929190610a41565b60405180910390f35b61013b600480360381019061013691906108ca565b6103b5565b005b61015760048036038101906101529190610950565b610527565b6040516101649190610b4a565b60405180910390f35b610187600480360381019061018291906108ca565b610624565b005b60008260405160200161019c9190610bd6565b6040516020818303038152906040528051906020012090506000806000838152602001908152602001600020600001540361020c576040517f08c379a000000000000000000000000000000000000000000000000000000000815260040161020390610c4a565b60405180910390fd5b8160008083815260200190815260200160002060030181905550600080828152602001908152602001600020600201546000808381526020019081526020016000206001015414801561028857506000808281526020019081526020016000206003015460008083815260200190815260200160002060020154145b156102c057600160008083815260200190815260200160002060040160006101000a81548160ff0219169083151502179055506102f8565b7f2b1248a87322396cbe1f405d6c43bb7dba91afd7b55e61079ebc9b46d6c557ab816040516102ef9190610cb6565b60405180910390a15b7f50015543695dda9b9f58b58fa458b1eaae38ac4c4d8f83cf23bff1a9506098398183604051610329929190610ce4565b60405180910390a1505050565b60015481565b60008160405160200161034f9190610bd6565b604051602081830303815290604052805190602001209050919050565b60006020528060005260406000206000915090508060000154908060010154908060020154908060030154908060040160009054906101000a900460ff16908060050154905086565b6000826040516020016103c89190610bd6565b60405160208183030381529060405280519060200120905060008060008381526020019081526020016000206000015414610438576040517f08c379a000000000000000000000000000000000000000000000000000000000815260040161042f90610d59565b60405180910390fd5b6040518060c001604052808281526020018381526020016000815260200160008152602001600015158152602001428152506000808381526020019081526020016000206000820151816000015560208201518160010155604082015181600201556060820151816003015560808201518160040160006101000a81548160ff02191690831515021790555060a08201518160050155905050600160008154809291906104e490610da8565b91905055507f177d9d05160271292838d588cd0fc808c1c3ca7be36f03729fb51e5f624f17dd818360405161051a929190610ce4565b60405180910390a1505050565b61052f6106ff565b6000826040516020016105429190610bd6565b604051602081830303815290604052805190602001209050600080600083815260200190815260200160002060000154036105b2576040517f08c379a00000000000000000000000000000000000000000000000000000000081526004016105a990610c4a565b60405180910390fd5b6000808281526020019081526020016000206040518060c0016040529081600082015481526020016001820154815260200160028201548152602001600382015481526020016004820160009054906101000a900460ff16151515158152602001600582015481525050915050919050565b6000826040516020016106379190610bd6565b604051602081830303815290604052805190602001209050600080600083815260200190815260200160002060000154036106a7576040517f08c379a000000000000000000000000000000000000000000000000000000000815260040161069e90610c4a565b60405180910390fd5b81600080838152602001908152602001600020600201819055507ff03ba798ccdec2f00b7f634dd07ae3e7f46f21c8aacacc50d812a344c7ab0bc581836040516106f2929190610ce4565b60405180910390a1505050565b6040518060c0016040528060008019168152602001600081526020016000815260200160008152602001600015158152602001600081525090565b6000604051905090565b600080fd5b600080fd5b600080fd5b600080fd5b6000601f19601f8301169050919050565b7f4e487b7100000000000000000000000000000000000000000000000000000000600052604160045260246000fd5b6107a182610758565b810181811067ffffffffffffffff821117156107c0576107bf610769565b5b80604052505050565b60006107d361073a565b90506107df8282610798565b919050565b600067ffffffffffffffff8211156107ff576107fe610769565b5b61080882610758565b9050602081019050919050565b82818337600083830152505050565b6000610837610832846107e4565b6107c9565b90508281526020810184848401111561085357610852610753565b5b61085e848285610815565b509392505050565b600082601f83011261087b5761087a61074e565b5b813561088b848260208601610824565b91505092915050565b6000819050919050565b6108a781610894565b81146108b257600080fd5b50565b6000813590506108c48161089e565b92915050565b600080604083850312156108e1576108e0610744565b5b600083013567ffffffffffffffff8111156108ff576108fe610749565b5b61090b85828601610866565b925050602061091c858286016108b5565b9150509250929050565b61092f81610894565b82525050565b600060208201905061094a6000830184610926565b92915050565b60006020828403121561096657610965610744565b5b600082013567ffffffffffffffff81111561098457610983610749565b5b61099084828501610866565b91505092915050565b6000819050919050565b6109ac81610999565b82525050565b60006020820190506109c760008301846109a3565b92915050565b6109d681610999565b81146109e157600080fd5b50565b6000813590506109f3816109cd565b92915050565b600060208284031215610a0f57610a0e610744565b5b6000610a1d848285016109e4565b91505092915050565b60008115159050919050565b610a3b81610a26565b82525050565b600060c082019050610a5660008301896109a3565b610a636020830188610926565b610a706040830187610926565b610a7d6060830186610926565b610a8a6080830185610a32565b610a9760a0830184610926565b979650505050505050565b610aab81610999565b82525050565b610aba81610894565b82525050565b610ac981610a26565b82525050565b60c082016000820151610ae56000850182610aa2565b506020820151610af86020850182610ab1565b506040820151610b0b6040850182610ab1565b506060820151610b1e6060850182610ab1565b506080820151610b316080850182610ac0565b5060a0820151610b4460a0850182610ab1565b50505050565b600060c082019050610b5f6000830184610acf565b92915050565b600081519050919050565b600081905092915050565b60005b83811015610b99578082015181840152602081019050610b7e565b60008484015250505050565b6000610bb082610b65565b610bba8185610b70565b9350610bca818560208601610b7b565b80840191505092915050565b6000610be28284610ba5565b915081905092915050565b600082825260208201905092915050565b7f536869706d656e74206e6f7420666f756e640000000000000000000000000000600082015250565b6000610c34601283610bed565b9150610c3f82610bfe565b602082019050919050565b60006020820190508181036000830152610c6381610c27565b9050919050565b7f4d69736d6174636820696e20736869706d656e74206461746100000000000000600082015250565b6000610ca0601983610bed565b9150610cab82610c6a565b602082019050919050565b6000604082019050610ccb60008301846109a3565b8181036020830152610cdc81610c93565b905092915050565b6000604082019050610cf960008301856109a3565b610d066020830184610926565b9392505050565b7f536869706d656e7420616c726561647920657869737473000000000000000000600082015250565b6000610d43601783610bed565b9150610d4e82610d0d565b602082019050919050565b60006020820190508181036000830152610d7281610d36565b9050919050565b7f4e487b7100000000000000000000000000000000000000000000000000000000600052601160045260246000fd5b6000610db382610894565b91507fffffffffffffffffffffffffffffffffffffffffffffffffffffffffffffffff8203610de557610de4610d79565b5b60018201905091905056fea264697066735822122085c70e3f4ddf2152f661e705b8c162d4fea8c3c681855e53ba826d7c4d31dd9964736f6c634300081c0033",
  "linkReferences": {},
  "deployedLinkReferences": {}
}